:020000040800F2
:10000000385300204D020008BD3F0008613400084D
:10001000013A00089D08000809520008000000008D
:100020000000000000000000000000004143000844
:10003000D90E00080000000041420008F149000804
:1000400067020008670200086702000867020008EC
:1000500067020008670200086702000867020008DC
:1000600067020008670200086702000867020008CC
:1000700067020008670200086702000867020008BC
:1000800067020008670200086702000867020008AC
:10009000A10800086702000867020008670200085C
:1000A00067020008E54A00086702000867020008C6
:1000B000F54A0008670200086702000867020008A6
:1000C000670200086702000867020008670200086C
:1000D0006702000831510008670200086702000843
:1000E000670200086702000867020008670200084C
:1000F000670200086702000867020008670200083C
:10010000670200086702000867020008670200082B
:10011000670200086702000867020008670200081B
:1001200067020008010A0008110A000867020008B7
:1001300067020008670200086702000867020008FB
:10014000B10800086702000867020008670200089B
:10015000670200086702000867020008A151000852
:1001600067020008670200086702000867020008CB
:10017000670200086702000867020008000000002C
:1001800067020008670200086702000867020008AB
:10019000670200086702000867020008670200089B
:1001A00000000000000000006702000800F002F8F4
:1001B00000F03CF80AA090E8000C82448344AAF1C5
:1001C0000107DA4501D100F031F8AFF2090EBAE8C3
:1001D0000F0013F0010F18BFFB1A43F0010318477B
:1001E0004482000064820000103A24BF78C878C1BD
:1001F000FAD8520724BF30C830C144BF04680C602D
:10020000704700000023002400250026103A28BF74
:1002100078C1FBD8520728BF30C148BF0B60704778
:100220001FB507F0E4FF1FBD10B510BD00F05AF96F
:100230001146FFF7F5FF05F001FA00F078F903B475
:10024000FFF7F2FF03BC00F07BF90000094880478C
:1002500009480047FEE7FEE7FEE7FEE7FEE7FEE7A8
:10026000FEE7FEE7FEE7FEE704480549054A064BC0
:1002700070470000D14A0008AD010008384D002049
:1002800038530020384F0020384F002053EA020C2A
:1002900000F069802DE9F04B4FF00006002B1FBFE6
:1002A000B3FA83F503FA05F424FA05F65E4012BFAB
:1002B0001643B2FA82F502FA05F4C5F120051EBF15
:1002C00022FA05FC44EA0C04203556EA044C4FEAB5
:1002D000144418BF641C4FF000084FF0000990420E
:1002E00071EB030C39D3002919BFB1FA81F701FA78
:1002F00007F6B0FA80F700FA07F6C7F120071EBF2D
:1003000020FA07FC46EA0C062037B6FBF4FCA7EB04
:100310000507103F07F01F0BCBF120062CFA06F65D
:100320000CFA0BFB44BFB3460026202FA4BF5E4649
:100330004FF0000B5BEA060C08BF4FF0010B19EB06
:100340000B0948EB0608ABFB027C06FB02CC0BFB5F
:1003500003CCC01B71EB0C01C1E70B4602464146C2
:100360004846BDE8F08B13B5084318BF4FF0FF3087
:100370000146AFF30080BDE81C407047032A40F2FD
:10038000308010F0030C00F0158011F8013BBCF137
:10039000020F624498BF11F801CB00F8013B38BF4F
:1003A00011F8013BA2F1040298BF00F801CB38BF5D
:1003B00000F8013B11F0030300F02580083AC0F07B
:1003C000088051F8043B083A51F804CBA0E8081023
:1003D000F5E7121D5CBF51F8043B40F8043BAFF356
:1003E0000080D20724BF11F8013B11F801CB48BFB0
:1003F00011F8012B24BF00F8013B00F801CB48BFE6
:1004000000F8012B704710B5203AC0F00B80B1E81E
:100410001850A0E81850B1E81850A0E81850203A39
:10042000BFF4F5AF5FEA027C24BFB1E81850A0E842
:10043000185044BF18C918C0BDE810405FEA827C5C
:1004400024BF51F8043B40F8043B08BF7047D20773
:1004500028BF31F8023B48BF11F8012B28BF20F814
:10046000023B48BF00F8012B70474FF0000200B577
:10047000134694469646203922BFA0E80C50A0E8C7
:100480000C50B1F12001BFF4F7AF090728BFA0E875
:100490000C5048BF0CC05DF804EB890028BF40F841
:1004A000042B08BF704748BF20F8022B11F0804F83
:1004B00018BF00F8012B704770477047704710B5A0
:1004C00000F008F8006810BD10B5044600F002F80E
:1004D000046010BD0048704790000020004870473D
:1004E000900000207546FFF7F9FFAE46050069460B
:1004F000534620F00700854618B020B5FFF7B4FE3C
:10050000BDE820404FF000064FF000074FF0000814
:100510004FF0000BAC46ACE8C009ACE8C009ACE851
:10052000C009ACE8C00921F007018D46704710B53D
:100530000446AFF300802046BDE81040FFF77FBEC1
:1005400001491820ABBEFEE72600020070470000FC
:1005500010B52DED088B002864D0044694ED012AD7
:1005600094ED029AB0EE408A84ED190A94ED000AE7
:1005700029EE023A006EE16E94ED031A30EE030AA2
:10058000C4ED180A84ED000A30EE600AF0EE420A6B
:10059000F0EE491AE065A16604F0B8FF94ED012A77
:1005A00029EE000A94ED001A32EE002A94ED0D0AAD
:1005B00094ED0E3AD4ED060A31EE400A94ED0A1A93
:1005C00094ED089A84ED012A32EE432A84ED040A60
:1005D00084ED052A04F022FF94ED052AD4ED070AE4
:1005E00094ED0A1A94ED09AA29EE00BAB0EE420A77
:1005F00004F014FF94ED0C1A94ED0F9A2AEE000A01
:1006000089EE011A3BEE002A94ED160A32EE411AE9
:10061000B4EE401AF1EE10FA84ED1B1A07DD84EDFA
:100620001B0A0DE09FED2D0ABDEC088B10BDB1EE4D
:10063000400AB4EE401AF1EE10FAB8BF84ED1B0A7E
:1006400094ED0D0A94ED113A94ED0E2A30EE488A9D
:1006500094ED02AA28EE033A32EE432A2AEE022A49
:1006600094ED101A30EE020AD4ED140A94ED12BA89
:1006700084ED0D0AB0EE480A04F0D0FE94ED1B2A7A
:1006800094ED0C4A2BEE000A39EE400A24EE022AC1
:1006900094ED0E5A30EE020A2AEE000A35EE000AF8
:1006A00094ED023A84ED0E0A94ED130A94ED101ABB
:1006B000D4ED150A20EE039AB0EE480A04F0AEFE1F
:1006C00094ED0F2A29EE001A94ED1B0A32EE411A1E
:1006D00084ED0F1ABDEC088B10BD00BF00000000B8
:1006E000002808BF7047B0B52DED068B04460020EA
:1006F000C4E900000D460968B0EE408AA16069684F
:10070000B0EE081AE16095ED020A84ED0B0AE96883
:10071000C4E90E00C4E90C10286920EE011A206417
:1007200010EE100A84ED111A07F0F0FC02460B4699
:1007300041EC190B07F0F0F99FED17AB53EC1A2BB6
:1007400007F0EAF906F04CFFB0EE490AB0EE4A1A9B
:10075000F0EE690AF0EE6A1AA06405F0B1FF51EC00
:10076000100B06F03DFFE06468692065A8696065CC
:10077000E869A062286AA061686AE061A86A2062EC
:10078000E86A84ED168A6062BDEC068BBDE8B04075
:10079000704700BF00BF00BF00000000000008401D
:1007A000B0B52DED048B40F62465C2F20005296832
:1007B0000446481C40F63C21C2F20001B1F9001089
:1007C0009FED329A00EE101A40F63E21B8EEC00AB4
:1007D0009FED2F8AC2F2000120EE090A098820EE5F
:1007E000080A0A28286084ED000A218117D394EDB5
:1007F000011A9FED282A30EE410A80EE020A9FED91
:10080000261A84ED030AB0EEC00A30EE010A04F0A5
:1008100007FF00281CBF0020E0602068606040F6F1
:10082000CC10C2F20000B0F9000000EE100A2868F7
:10083000B8EEC00A0A2840F6CE10C2F2000020EE40
:10084000090A008820EE080A84ED040A208319D3DF
:1008500094ED051A9FED0F2A30EE410A80EE020A50
:100860009FED0D1A84ED070AB0EEC00A30EE010AC2
:1008700004F0D6FE00281CBF0020E0612069606102
:1008800000202860BDEC048BB0BD00BF0000B44365
:1008900000000038CDCCCC3DDAFFE0BDFEE7000023
:1008A00080B540F66420C2F2000001F00FF880BD70
:1008B00080B540F68C20C2F2000001F007F880BD40
:1008C00000EE100A9FED071AB8EEC00A20EE010AEA
:1008D0009FED051A9FED052A20EE010A30EE020A6F
:1008E000704700BF000000390000B443000034C36B
:1008F00040F69410C2F20000002101607047000031
:1009000040F67051C2F20001C98A084018BF0120A8
:100910007047000080B540F69410C2F200000168F4
:10092000D0E9053201310132013301600021C0E913
:10093000053200BF00EB8102536801310133042905
:100940005360F7D1D0E907C2D0E90913013203F1AE
:10095000010E0CF101030131C0E90732C0E9091EA3
:1009600080BD0000B0B540F69411C2F200010868E5
:100970000022322840F6C0104FF00003C2F20000FF
:1009800088BF0123037000BF01EB82035B688518F9
:10099000322B4FF0000302F1010288BF0123042A29
:1009A0006B70F1D101F1140E9EE80C50322B4FF018
:1009B0000003D1E9094188BF0123322A4FF0000228
:1009C000437188BF012282710022BCF1640F88BF8D
:1009D0000122C271BEF1640F4FF0000288BF0122F4
:1009E00032294FF00001027288BF01210025817277
:1009F00040F6B8318C4288BF01254572B0BD000079
:100A000080B540F61430C2F2000001F03FFA80BD1C
:100A100080B540F6B420C2F2000001F037FA80BD84
:100A2000D0F800C06FF00F024AF6AB2352FA8CF2F6
:100A3000CAF6AA230146A2FB0330000905A31B5CEA
:100A400040F2FF302CEA00005F2A88BF0430C1E981
:100A50001603704700061016000610168269816A98
:100A6000B2F5005F06D06AB9022912D0012914D06C
:100A7000D1B90EE0032917D8DFE801F0020B020F0D
:100A80000120704703293CBF012070471CBF002094
:100A90007047C06AC0F300607047C06AA0F1C070C0
:100AA000B0FA80F0400970470020704780B5D0F858
:100AB00000C0D0F808E0DCF80000BEF1400F20F4E0
:100AC0008020CCF800000846CCF8043004BF104663
:100AD0000A46CCF80800CCF80C2080BD40F68850BF
:100AE000C2F20000B0F8071040F6DA12D0F80900A0
:100AF000C2F200021180C2F80200704780B540F6D1
:100B00008850C2F20000B0F8050040F65C2140F2C7
:100B10000A22C2F200019042088008BFFFF7DEFF00
:100B200080BD000040F2F0010020C2F20001C4F2DA
:100B3000FA30086040F6382148F20002C2F20001A3
:100B4000C4F23A320A6040F62C214BF23332C2F240
:100B50000001C4F22C320A6040F208110022C2F2F5
:100B60000001C4F24842C1F8D027C1F8D427C1F827
:100B7000D827C1F8DC2740F2000C00230022C4F281
:100B8000614CC4F2A833C4F2D032C1F8C007C1F836
:100B9000C407C1F8C807C1F8CC07C1F8E007C1F81D
:100BA000E407C1F8E807C1F8EC07C1F8F0C7C1F8DD
:100BB000F4C7C1F8F8C7C1F8FCC7C1F80038C1F8DC
:100BC0000438C1F80838C1F80C38C1F81028C1F849
:100BD0001428C1F81828C1F81C2840F6F811C2F2F0
:100BE0000001086040F6FC10C2F20000C0F800C02E
:100BF0007047000010B540F20814C2F20004B4F8C7
:100C00003008B4F832184042B4F93428494200B2EE
:100C100009B200F095FCB4F93608B4F93818B4F903
:100C20003A28B4F93C3803F07DFE10BDB0B540F66B
:100C30007C1140F20815C2F20001C2F200054A79A7
:100C400095F8440840F20413C2F20003012A187018
:100C50001AD08A79012A17D00A78012A14D04A7842
:100C6000012A11D08A78012A0ED0CA78012A0BD025
:100C70000A79012A08D0CA79012A05D00A7A012AFC
:100C800002D0897A012903D1002085F84408B0BD3B
:100C900005F5F46191ED040A9FED4B1AB4EE410A9B
:100CA000F1EE10FAF0DC91ED001A9FED482AB4EE57
:100CB000421AF1EE10FAE7DB9FED452AB4EE421A34
:100CC000F1EE10FAE0DCB3EE0E1AB4EE410AF1EEEA
:100CD00010FAD9DB40F6E011C2F20001897A03294B
:100CE0004ED0022951D001295AD1032808BFB0BDE6
:100CF00040F65410C2F200000024046040F6581080
:100D0000C2F200000121017040F65910C2F2000049
:100D1000047040F2FC00C2F20000047040F664105F
:100D2000C2F20000047040F63020C2F200000460FD
:100D300040F63820C2F20000006840F63421C2F2CA
:100D40000001086040F2F600C2F20000FF210170CD
:100D500040F2FE00C2F20000047040F2F800C2F25D
:100D60000000046040F2FD00C2F20000047040F296
:100D70000010C2F200000460032085F8440812E06D
:100D8000022085F8440801240DE040F604400024C8
:100D9000C2F20000002185F8444802F039F902E06F
:100DA000002485F8444841F60000C4F202004FF4E4
:100DB0000051224601F098FA95F8440840F20511D6
:100DC000C2F200010870B0BD0000344200002543AB
:100DD0000000434370B540F68716C2F200067078F3
:100DE00041F600040138B0FA80F04509C4F202046B
:100DF000204602212A4601F077FAB0780421013812
:100E0000B0FA80F042092046154301F06DFAF078FF
:100E100008210138B0FA80F042092046154301F05C
:100E200063FA307910210138B0FA80F04209204687
:100E3000154301F059FA707920210138B0FA80F099
:100E400042092046154301F04FFAB079402101389C
:100E5000B0FA80F042092046154301F045FA307897
:100E600080210138B0FA80F042092046154301F094
:100E70003BFAF0794FF480710138B0FA80F0420902
:100E80002046154301F030FA307A4FF480410138A2
:100E9000B0FA80F04209A4F58060154301F024FA0D
:100EA000B07A4FF40061013818BF012020EA050232
:100EB000A4F5006001F018FA70BD000040F6871438
:100EC000C2F20004204600F009F8FFF783FF01207A
:100ED00004F0E0FBF6E700007047000040F6C011A8
:100EE000C2F200010A68D1F807304968C0F807303B
:100EF000416002607047000080B540F20810C2F205
:100F0000000000F5F460FFF74BFC80BDEFF31080AC
:100F100072B600BFFEE7000040F6DA11C2F200012F
:100F20008A888280096801607047000040F62820A6
:100F3000C2F20000006870472DE9F04F81B02DED3E
:100F4000048B40F20817C2F2000797F84408002506
:100F50000128C4F234353FD107F5F4649FED198AB6
:100F60009FED199A94ED000AD4ED030A9FED171A2C
:100F700007F5FA70F0EE481AB0EE492AC7F8205883
:100F800004F0C0F9BDEEC00A10EE100AA7F8300850
:100F90000020C4F2142094ED040AD4ED070A9FED5A
:100FA0000C1AC7F8240807F53470F0EE481AB0EEB2
:100FB000492A04F0A7F9BDEEC00A10EE100AA7F8FE
:100FC000320809E00000B443000000000000344390
:100FD000000014423333B33E97F8440840F63029FA
:100FE00040F634280328C2F20009C2F2000840F09B
:100FF000288140F6D410C2F20000407840F2FC0B89
:10100000C2F2000B8BF8000002F012FA044602F064
:1010100003FA05464FF48040FFF772FC06464FF492
:101020000050FFF76DFCA1192844081A04F0F2FAE9
:101030009BF80010B0F1FF3018BF0120002940F2EA
:10104000F60940F6591A18BF0121C2F200090842F8
:10105000C2F2000A10D199F80000FF280CD040F627
:101060003820C2F200000068C8F80000FF2089F8AC
:10107000000001208AF8000002F0DAF9044602F0CC
:10108000CBF905464FF48040FFF73AFC06464FF493
:101090000050FFF735FCA1192844081A04F0BAFAE9
:1010A0009BF80010013818BF0120013918BF012139
:1010B00008420FD199F8000001280BD040F62C20EF
:1010C000C2F200000068C8F80000012089F80000A2
:1010D0008AF8000002F064F9044602F06DF9054652
:1010E0004FF40060FFF70CFC06464FF48050FFF70A
:1010F00007FCA1192844081A00EE100A1FED4B8ABC
:10110000B8EEC00A20EE080A04F0EAF904F088FA02
:1011100040F63029C2F20009D8B902F041F904467C
:1011200002F04AF905464FF40060FFF7E9FB064676
:101130004FF48050FFF7E4FBA1192844081A00EE91
:10114000100AB8EEC00A20EE080A04F0C9F989EDC9
:10115000000A99ED000A04F063FA38BB02F020F9A6
:10116000044602F029F905464FF40060FFF7C8FB7A
:1011700006464FF48050FFF7C3FBA1192844081A14
:1011800000EE100AB8EEC00A20EE080A04F0A8F932
:1011900004F046FA50B199ED000A98ED001A0020CB
:1011A00030EE010A88ED000AC9F8000098ED000A47
:1011B0009FEDDB1AB0EEC02AB4EE412A07F50264B7
:1011C000F1EE10FA84ED000A06DA40F63820C2F299
:1011D00000000068C7F8200807F5F4659FEDCC8A89
:1011E0009FEDCC9A95ED000AD5ED030A94ED001A17
:1011F00007F5FA70F0EE481AB0EE492A04F082F8CA
:10120000BDEEC00A10EE100AA7F830080020C4F2A4
:10121000142095ED040AD5ED070A9FEDBF1A606012
:1012200007F53470F0EE481AB0EE492A04F06AF877
:10123000BDEEC00A002510EE100AC4F23435A7F83E
:10124000320897F84408022840F04E8102F0E4F892
:10125000002840F63820C2F2000007D090ED000AC6
:1012600007F5026088ED000A80ED000A02F0E0F860
:1012700040F62C2AC2F2000A38B19AED000A07F5AE
:10128000026088ED000A80ED000A02F0B9F800283B
:101290001CBFC8F80050C7F8205807F5026B9BED3B
:1012A000000A9FED9F1AB0EEC00AB4EE410AF1EEBB
:1012B00010FAB8BFC8F8005002F072F8044602F005
:1012C0007BF805464FF40060FFF71AFB06464FF423
:1012D0008050FFF715FBA1192844081A00EE100AE8
:1012E0009FED8E8AB8EEC00A20EE080A04F0F8F8E6
:1012F00004F096F9D8B902F053F8044602F05CF80D
:1013000005464FF40060FFF7FBFA06464FF48050A5
:10131000FFF7F6FAA1192844081A00EE100AB8EEF1
:10132000C00A20EE080A04F0DBF889ED000A99ED06
:10133000000A04F075F938BB02F032F8044602F0F6
:101340003BF805464FF40060FFF7DAFA06464FF423
:101350008050FFF7D5FAA1192844081A00EE100AA8
:10136000B8EEC00A20EE080A04F0BAF804F058F902
:1013700050B199ED000A98ED001A002030EE010AF4
:1013800088ED000AC9F8000098ED000AB5EE400AA1
:10139000F1EE10FA8BED000A0BDA9FED5D1A00BF3B
:1013A00030EE010AB5EE400AF1EE10FAF8DB8BEDF3
:1013B000000A9BED001A9FED560AB4EE401AF1EEBA
:1013C00010FA0ADD9FED572A31EE021AB4EE401AE8
:1013D000F1EE10FAF8DC8BED001A07F5F46090EDF1
:1013E000000AD0ED030ADFED4A1A9FED4A2A07F5FD
:1013F000FA7003F087FF07F6240595ED001ABDEE9D
:10140000C00A10EE100AB0EEC10AB2EE041AB4EE31
:10141000410AF1EE10FAA7F83008BEBF0020C4F26E
:101420001420C7F8240802F00FF8044601F0E8FF82
:10143000201A00EE100A9FED3C1AB8EEC00A20EE0A
:10144000010A04F04DF895ED001A9FED382A07F5D2
:10145000F66030EE011A90ED003A07F2BC70B4EE7F
:10146000421AB3EE0E0AD0ED000AF1EE10FAC8BF30
:10147000B0EE421AB4EE401ADFED251A9FED252A90
:10148000F1EE10FAB8BFB0EE401A07F53470B0EEC6
:10149000430A85ED001A03F035FFBDEEC00A10EED9
:1014A000100AA7F8320801F0CFFFE8B198ED000A62
:1014B000DFED1F0A9FED1F1A04F09AF830B1D8F83B
:1014C000000040F63821C2F20001086098ED000AE1
:1014D000DFED190A9FED191A04F08AF800281CBFE5
:1014E000D8F80000CAF8000097F8440858B900205E
:1014F000C7F8300841F60000C4F202004FF4005172
:10150000002200F0F1FEBDEC048B01B0BDE8F08FCD
:101510000000B44300000000000014423333B33E27
:101520000000B4420000B4C3A69B443B0000344218
:101530000080384300803C4333B32A4333B32E4307
:1015400080B540F6442CC2F2000C4FF0080ECCF8E7
:1015500010E040F66C1E0023C2F2000ECCE902330C
:10156000030A8EF80100080A8EF80200100A8EF8AD
:10157000040040F2FF108EF80030CCF8000040F676
:10158000642040F620638EF803108EF80520C2F226
:101590000000C2F200036146724600F045F880BDCB
:1015A00010B540F64021C2F20001B1F90010044626
:1015B0000846FFF785F940F64220C2F20000B0F974
:1015C000000084ED000A01EE100A40F6D010C2F2CD
:1015D0000000B0F90000B8EEC11A84ED011AFFF75F
:1015E0006FF940F6D210C2F20000B0F9000084EDAD
:1015F000020A01EE100AB8EEC11A84ED031A10BDFA
:1016000090F82020013A012A04D8006800F1140261
:10161000002004E000F1240201204FF4802113682F
:10162000194311607047000010B590F820E0D0F821
:1016300000C0AEF1010EBEF1010FDCF808E00DD8DC
:101640001EF0E05F10D0CEF3016EBEF1030F11D19A
:1016500000F1240101204FF4000233E000F12401E5
:1016600001204FF480222DE000F1240101204FF4ED
:10167000001227E0012000FA0EF01860886818B107
:101680004B6840EAC30001E008684005D1E9033433
:1016900003430CEB0E10C0F88031C0F88441097D83
:1016A000012905D100F5C2710B6843F480730B600A
:1016B0005168C0F88C11126800F5C071C0F888211B
:1016C000002001220B681A430A6010BDB0B590F8E3
:1016D0002020013A012A2FD846F20060C4F200000F
:1016E000026842F001020260026822F47C52026049
:1016F000D1F814E0CC694A6A0368012C43EA02225B
:1017000002600EF01F024FF0010303FA02F2C369F8
:101710006FEA020C23EA0203C36113D02CBBC36837
:1017200003EA0C03C360CB688C8844EA034300EBF4
:10173000CE0423640B4611E0416A41F480214162EA
:101740000120B0BDC3681343C3600B688C8844EAB2
:10175000034300EBCE04236401F10C038C681B8867
:1017600043EA044300EBCE04636443688D6943EAB3
:101770000204D1F810E0096A002D08BF03EA0C0446
:1017800044604369BEF1000F43EA020408BF03EA64
:101790000C040129446102D1C1691143C16101688E
:1017A00021F0010101600020B0BD00007047000081
:1017B00010B590F82040013C012C0CD8D0F800C0A6
:1017C00079B1DCF81040A4070FD100F12401012009
:1017D0004FF4001270E000F1240101204FF4802248
:1017E0006AE0DCF80C40A4076AD0046804EB011C32
:1017F000DCF8B0410CF5D87E14F004049460DCF8F9
:10180000B04119BFE4085460640D1460DEF8004074
:10181000002904F00204D460DCF8B44104F00F04A1
:101820001461DCF8B441C4F307249461DCF8B441DA
:101830004FEA14445461DCF8B8211A70026802EBD4
:101840000112D2F8B8214FEA12225A70026802EB54
:101850000112D2F8B8214FEA12429A70026802EBE4
:101860000112D2F8B8214FEA1262DA70026802EB74
:101870000112D2F8BC211A71026802EB0112D2F8EF
:10188000BC214FEA12225A71026802EB0112D2F80F
:10189000BC214FEA12429A71026802EB0112D2F89F
:1018A000BC214FEA1262DA71006814BF00F1100126
:1018B00000F10C01002020220B681A430A6010BDC1
:1018C00000F1240101204FF40012F5E72DE9F04F5B
:1018D00081B0044600684669D0F804908768D0F863
:1018E0000CB0D0F810A0D0F81880F10703D1002573
:1018F00030071CD423E0F90710D00121BA0781601A
:1019000009D4780700F1AA80380700F1B08020469A
:1019100000F06EFA02E0204600F06CFA0025F805AF
:1019200000F18480F80300F1AA80300707D51BF08E
:10193000100004D0206845F400751021C1607007C4
:1019400008D51BF0080005D020680821C16020469A
:1019500000F0E4F9B00706D52068C068800702D01F
:10196000204600F0DDF9700607D51AF0100004D00B
:10197000206845F4806510210161B00608D51AF091
:10198000080005D0206808210161204600F0FCF91C
:10199000F00606D520680069800702D0204600F0D6
:1019A000F5F9B00308D519F0100005D02068102112
:1019B0004160204600F0ECF9F00308D519F008006A
:1019C00005D0206808214160204600F01DFA30044F
:1019D00040F18F805FEA497040F1888006F48070A2
:1019E00008EA102028435FEA8871014648BF41F0A9
:1019F0000201B20558BF01465FEA48700D4648BF74
:101A000045F00405700558BF0D4630056ED518F039
:101A100070006BD010380009052862D8DFE800F0AC
:101A2000035356595C5F45F008055AE020684FF4AF
:101A30008071BA0581600AD4780512D4380519D4AA
:101A4000204600F0D9F9F8037FF56FAF17E0204684
:101A500000F0D4F9F8037FF568AF10E04FF40065AB
:101A60005DE705F50055F8037FF55FAF07E04FF43C
:101A7000805554E705F58045F8037FF556AF20689B
:101A80004FF48031BA0381600AD478030FD438034D
:101A900013D4204600F0B4F930073FF548AF4EE7C5
:101AA000204600F0AFF930073FF541AF47E705F5B5
:101AB000004530073FF53BAF41E705F5803530077E
:101AC0003FF535AF3BE745F010050AE045F020054E
:101AD00007E045F0400504E045F0800501E045F4ED
:101AE00080752068816921F070018161206804217E
:101AF00041602DB1606A284360622046FFF756FEC0
:101B000001B0BDE8F08F0000B0B5C8B1044690F850
:101B1000200010B9204600F071F82068016841F0FB
:101B20000101016000F0E6FB054600BF2068416846
:101B3000C90707D100F0DEFB401B0B28F6D312E0EB
:101B40000120B0BD016821F00201016000F0D2FB6C
:101B5000054600BF2068416889070DD500F0CAFB23
:101B6000401B0B28F6D3606A052140F40030606208
:101B7000012084F82010B0BD217E0268012922F0E6
:101B8000800208BF80320260617E0268012922F073
:101B9000400208BF40320260A17E0268012922F0A3
:101BA000200208BF20320260E17E0268012922F093
:101BB000100218BF10320260217F0268012922F052
:101BC000080208BF08320260617F0268012922F022
:101BD000040208BF04320260D4E901C2D4E903352B
:101BE00061691A432A431143ACF101021143C161F7
:101BF00000200121606284F82010B0BD10B586B0CD
:101C0000006846F60002C4F2000200219042CDE9CD
:101C10000411CDE90211019134D046F20041C4F221
:101C20000001884278D140F65C11C2F200010A68D6
:101C300043F64000C4F20200531C0B6052B900216D
:101C40000091016841F000710160016801F00071CC
:101C5000009100990021009150F8101C142441F0CB
:101C6000080140F8101C50F8100C00F0080000901B
:101C700000980320019040F20040C4F2020000F5F9
:101C8000006036E043F64000C4F2020000910168B3
:101C900041F080610160016801F08061009100996C
:101CA00040F65C11C2F200010A68531C0B6052B985
:101CB00000210091016841F000710160016801F0AC
:101CC0000071009100990021009150F8101C4024EF
:101CD00041F0020140F8101C50F8100C00F0020016
:101CE000009000984FF44050019040F20040C4F240
:101CF0000200022102910021039103210491092194
:101D0000059101A900F022FA20460521002200F0E9
:101D10009BFB204600F094FB06B010BD704700000E
:101D2000B0B582B040F6DC55C2F200056B4600212A
:101D30002A460446FFF73CFD2968A1F20120062847
:101D400008D8DFE800F0040404040E11140002F0C7
:101D500041FE11E050290DD0512912D102F0A2FA12
:101D60000AE003F05BFA07E002F0A4FA04E0FEF7F1
:101D7000BFFD01E003F04AFA28686A46214602F0F6
:101D800071F802B0B0BD000070470000704700005D
:101D900070470000B0B5044690F8200001281DD11E
:101DA000022084F820002068016821F00101016010
:101DB00000F0A0FA054600BF20684068C00713D0B5
:101DC00000F098FA401B0B28F6D3606A40F400300C
:101DD0006062052084F820000120B0BD606A40F4F4
:101DE000002060620120B0BD00206062B0BD000034
:101DF0007047000070470000704700007047000007
:101E000070470000704700007047000070B5866D95
:101E1000044600F06FFA94F83510022925D10546E2
:101E20002068216C026822F016020260426922F0EA
:101E30008002426109B9A16C19B1016821F0080161
:101E40000160016821F00101016000BF20680068A5
:101E5000C0070ED000F04EFA401B0628F6D3202013
:101E60006065032084F835000CE080206065012067
:101E700008E0E06D3F2101FA00F0B060012084F835
:101E800035000020002184F8341070BDF0B581B019
:101E900004460020009040F26400C2F20000026894
:101EA000D4E9166048F2B51337680821C1F64E33FD
:101EB00081403942A2FB03250CD0226813685B07DE
:101EC00008D5136823F004031360B160616D41F01D
:101ED0000101616501218140394208D022685269BF
:101EE000120604D5B160616D41F002016165042103
:101EF0008140394208D022681268920704D5B16047
:101F0000616D41F00401616510218140394215D0B5
:101F100020680268120711D5B16002680168520397
:101F200006D4C90506D4016821F00801016001E06A
:101F3000080342D4216C09B120468847E16D202076
:101F400000FA01F23A4244D020680368DB0640D52B
:101F5000B26094F835300268052B1ED122F01602CB
:101F60000260426922F080024261226C0AB9A26CCE
:101F70001AB1026822F0080202603F208840B06077
:101F8000012084F83500216D0020002984F83400F8
:101F900040D02046884701B0F0BD0168520310D4FC
:101FA000C90512D4016821F010010160012084F8F4
:101FB0003500002084F8340007E0A16C0029BBD173
:101FC000BCE7080301D4616C00E0E16B09B1204675
:101FD0008847606DF0B1606DC00717D0052084F8A8
:101FE00035002068A90A026822F00102026000BFE1
:101FF000009A01328A42009202D80268D207F7D1D1
:10200000012084F83500002084F83400E16C09B127
:102010002046884701B0F0BD2DE9F041044600F0AC
:1020200069F9C4B10546022084F835000020216812
:1020300084F83400086820F00100086026683068E1
:10204000C0070BD000F056F9401B0528F6D9032134
:102050002022032042E00120BDE8F081306848F2F0
:102060003F01CFF21001251D00EA010C2ECDD4E96D
:10207000050E41EA0C01114319432943D4E90778BD
:10208000084340EA0E01606A3943042841EA080126
:1020900003D1D4E90B23114319433160716904283A
:1020A00021F0070141EA00050CD1D4E90A1045EA04
:1020B000010538B12046FEF7D1FC18B101214022BC
:1020C00001200BE020467561FEF7AAFCE16D3F227E
:1020D00002FA01F18160002201210020626584F88A
:1020E0003510BDE8F0810000B0B5044690F834002A
:1020F000012828D0012084F83400A56D94F835001B
:1021000001281DD1022084F835000020606520469A
:10211000FEF7CCFCE26D3F23206803FA02F2216C4B
:10212000AA60026842F01602026019B1016841F02B
:1021300008010160016841F0010101600020B0BDAB
:10214000002084F834000220B0BD00002DE9F04FDB
:1021500083B000F13E4202F1FF724FEAB22242F236
:1021600000470192C4F202070A224FF0010E002537
:102170004FF0000A4FF00008B84208BF0922009251
:102180000AE000BF08F101080AF1040AB8F1100FD3
:1021900005F1020500F0A4800C680EFA08FB14EAB1
:1021A0000B09EFD04C6804F0030CACF1010EBEF14A
:1021B000010F11D80322876802FA05F6CA68B743EF
:1021C000AA403A4382604268C4F3001722EA0B0235
:1021D00007FA08F73A434260BCF1030F1CD0C2680B
:1021E00003238E6803FA05F7BA4306FA05F73A4364
:1021F000BCF1020FC2600FD16FF0030202EA580275
:1022000002440AF01C060F23176A03FA06F40B694E
:10221000A743B3403B431362026803234F68AB40BC
:102220009A4307F00303AB401A4317F4403F4FF0C3
:10223000010E0260A6D0002243F644030292C4F2CB
:1022400002031A6843F6004442F480421A601A6896
:10225000C4F2010402F480420292029A28F00302BE
:102260004FF6084B2244CFF6FF7B52F80B300AF0B2
:102270000C070F26BE4023EA060C019B009E092B8B
:1022800038BF1E4606FA07F747EA0C0342F80B3040
:10229000A2684B6842EA090743F60C4CDE0258BFBD
:1022A00022EA0907A760C4F2010CDCF800209E02B4
:1022B00042EA090758BF22EA0907CCF800706268B1
:1022C0009E0342EA090758BF22EA090767602268AD
:1022D000DB0342EA090358BF22EA0903236051E7FE
:1022E00003B0BDE8F08F0000002A08BF0904816137
:1022F0007047000044F63020C2F2000000687047CA
:1023000040F2800044F63021C2F20000C2F2000127
:1023100000780A68104408607047000080B543F6F2
:102320000040C4F20200016841F4007101600168DC
:1023300041F480610160016841F480710160032013
:1023400000F092F80F2000F005F800F055F800209A
:1023500080BD0000B0B586B0002543F6440101956C
:10236000C4F202010A68044642F001020A600968E8
:1023700001A801F0010101910199694600F066F997
:1023800000F09CF94DF683614000C4F21B31A0FBC4
:1023900001014FF0FF3000EB914140F67430002214
:1023A000C2F20000C4F2010240F2E733C0E90021AA
:1023B000C0E902530561856100F0CAFB0546C0B95A
:1023C00040F67430C2F2000000F026FC054680B9E9
:1023D000192000F035F80F2C0AD8192021460022C8
:1023E00000F032F840F28400C2F20000046000E025
:1023F0000125284606B0B0BD80B582B0002043F666
:1024000040010190C4F202014A6842F480424A60ED
:102410004A6802F480420192019A00900868002202
:1024200040F08050086008680F2100F08050009054
:1024300000986FF0010000F007F802B080BD0000C6
:1024400080B502F0F3FE80BD70B514460D46064619
:1024500002F0FCFE2946224601F0B2FD014630465C
:1024600002F0FCFE70BD000080B502F009FF80BDE7
:1024700070B582B00020019043F64000C4F2020023
:102480000168402641F0805101600068C4F20E26C8
:1024900000F080500190019847F204050120C4F239
:1024A00000053060FFF726FF044600BF2868C00320
:1024B00006D4FFF71FFF001BB0F57A7FF6D90EE0B8
:1024C00001207060FFF716FF044600BF28688003F4
:1024D00008D4FFF70FFF001BB0F57A7FF6D9032071
:1024E00002B070BD002002B070BD00002DE9F041C7
:1024F000002800F08B8043F60808C4F20208044666
:10250000D8F8F8030D4600F00F00884207D288F88B
:10251000F853D8F8F80300F00F00A84276D12068ED
:10252000810717D5410705D5D8F8001041F4E051CF
:10253000C8F80010010705D5D8F8001041F4604133
:10254000C8F80010D8F80010A26821F0F00111437B
:10255000C8F80010C0073FD1D8F8F80300F00F000A
:10256000A84207D988F8F853D8F8F80300F00F000C
:10257000A8424BD12068410707D5D8F80010E2687F
:1025800021F4E0511143C8F80010000708D5D8F82D
:102590000000216920F4604040EAC100C8F8000052
:1025A00000F09EF8D8F8001048F2EC32C1F30311A5
:1025B000C0F60002515C40F2640220FA01F140F2E0
:1025C0008400C2F200000068C2F200021160FFF74E
:1025D000C1FE0020BDE8F0816068811E022907D29B
:1025E00058F8081C89015CBF0120BDE8F08110E0AB
:1025F000012807D158F8081C89035CBF0120BDE8F9
:10260000F08106E058F8081C890702D40120BDE8D3
:10261000F081D8F8001021F003010843C8F8000049
:10262000FFF768FE064641F2883700BFD8F8000081
:10263000616800F00C00B0EB810F8DD0FFF75AFEFF
:10264000801BB842F2D90320BDE8F0810F2202605E
:1026500043F60802C4F20202136803F00303436066
:10266000136803F0F0038360136803F4E053C3605E
:10267000D2F800C04FF4E05303EADC030361D2F860
:10268000F80300F00F0008607047000040F264009B
:10269000C2F200000068704780B5FFF7F7FF43F60D
:1026A0000801C4F20201096848F2FC32C1F3822138
:1026B000C0F60002515CC84080BD000080B5FFF745
:1026C000E5FF43F60801C4F20201096848F2FC3252
:1026D000C1F34231C0F60002515CC84080BD000029
:1026E00010B543F60404C4F20204606800F00C0064
:1026F00008280AD0042819BF42F20040C0F2F400B2
:1027000041F60030C0F2B70010BD20682168236890
:10271000490241F60031C0F2B70100F03F02C3F3B5
:1027200088105CBF42F20041C0F2F401A1FB00013D
:102730000023FDF7ABFD21680222C1F3014102EB4A
:102740004101B0FBF1F010BD2DE9F04182B000284D
:1027500000F0A2800446007843F60006C007C4F2E9
:10276000020643D0B06800F00C00042805D13068A0
:1027700080033BD56068C8BB8EE0B06800F00C00F9
:10278000082802D170684002F1D46568B5F5A02F21
:102790000AD0B5F5803F0BD0306820F4803030602F
:1027A000306820F4802006E0306840F480203060FB
:1027B000306840F480303060FFF79CFD002D054606
:1027C00011D000BF3068800310D4FFF793FD401B89
:1027D0006428F7D922E100BFFFF78CFD401B642875
:1027E0004FF0030055D830688003F5D42078800777
:1027F0001AD5B06810F00C0F09D0B06800F00C00CA
:10280000082840F08A807068400200F186803068B5
:10281000800702D5E06801283ED13068216920F0A8
:10282000F80040EAC10030602078000738D42078F2
:1028300040074CD4A5695DB3B06800F00C000828CF
:1028400040F09E80012D27D07068E16900F480027D
:102850008A4221D1216A00F03F028A421CD147F608
:10286000C071626A0140B1EB821F15D1A26A0023D8
:10287000CFF6FF7303EBC23200F440316FF30F0267
:10288000914209D1E16A00F07060B0EB016F03D1B1
:10289000002002B0BDE8F081012002B0BDE8F08167
:1028A0006069002840F20000C4F2472057D001219F
:1028B000C0F8801EFFF71EFD054600BF706F800741
:1028C000B5D4FFF717FD401B0228F7D9A6E0306CFE
:1028D00010F080580AD100200190306C40F08050F8
:1028E0003064306C00F080500190019847F200078E
:1028F000C4F200073868C00524D4386840F48070FA
:102900003860FFF7F7FC05463868C0051AD4FFF7B2
:10291000F1FC401B0228F7D980E0E068002851D084
:102920000020C4F2472001210160FFF7E3FC0546C7
:10293000306880073FF571AFFFF7DCFC401B0228D1
:10294000F6D96BE0A568052D50D0012D52D0306F1F
:1029500020F001003067306F20F004004DE00021CE
:10296000C0F8801EFFF7C6FC054600BF706F8007E9
:102970007FF55DAFFFF7BEFC401B0228F6D94DE0A6
:102980000027C4F2472700203866FFF7B3FC022D6A
:1029900005460BD13068800158D5FFF7ABFC401BD2
:1029A00002284FF00300F5D973E700BF30688001BB
:1029B0007FF56EAFFFF79EFC401B02284FF003002F
:1029C000F4D966E70020C4F2472000210160FFF738
:1029D00091FC0546306880077FF526AFFFF78AFC3B
:1029E000401B02284FF00300F4D952E7306F40F04B
:1029F00004003067306F40F001003067FFF77AFC69
:102A0000002D054641F2883714D000BF306F800793
:102A100013D4FFF76FFC401BB842F7D9032002B074
:102A2000BDE8F081FFF766FC401BB8424FF00300A1
:102A30003FF62FAF306F8007F4D4B8F1000F7FF46A
:102A4000F9AE306C20F080503064F3E604F11C05E0
:102A50002FCD08430021CFF6FF7140EA821001EB31
:102A6000C3316FF30F0140EA056008437060012035
:102A70003866FFF73FFC0446306880013FF508AF39
:102A8000FFF738FC001B02284FF00300F4D900E7E1
:102A9000704700007047000010B590F83C20012AF4
:102AA0004FF0020252D0012380F83C3080F83D20E4
:102AB0000268D2F804E0D2F808C00C682EF0700367
:102AC000234341F2FF74C4F20004A24253600DDCC0
:102AD00040F2FF73C4F200039A4215DCB2F1804F5A
:102AE00029D040F20043C4F2000322E040F2FF3359
:102AF000C4F201039A4212DC41F60003C4F200035F
:102B00009A4218D0002312E040F60003C4F20003FA
:102B10009A4210D040F60043C4F2000309E044F2A8
:102B20000003C4F201039A4205D040F20043C4F20C
:102B300001039A4204D149682CF080031943916043
:102B40000121002280F83D1080F83C20104610BD85
:102B5000002804BF0120704710B5044690F83D00DE
:102B600028B9002084F83C00204600F01FF802201D
:102B700084F83D002068211D01F0C6FF012084F883
:102B8000460084F83E0084F83F0084F8400084F852
:102B9000410084F8420084F8430084F8440084F83B
:102BA000450084F83D00002010BD000080B582B0D3
:102BB000006840F20041C4F2000188421BD0B0F12D
:102BC000804F27D10020019043F64000C4F202005C
:102BD0000168002241F0010101600068052100F058
:102BE0000100019001981C20FFF72EFC1C20FFF72C
:102BF00027FC02B080BD0020009043F64000C4F2E4
:102C00000200016841F002010160006800F002006A
:102C10000090009802B080BD90F83D1001291CBFC3
:102C200001207047022180F83D10006841F2FF72D8
:102C3000C168C4F20002904241F00101C1600DDCA4
:102C400040F2FF71C4F20001884215DCB0F1804F00
:102C500029D040F20041C4F2000122E040F2FF31ED
:102C6000C4F20101884212DC41F60001C4F2000105
:102C7000884218D0002112E040F60001C4F20001A1
:102C8000884210D040F60041C4F2000109E044F24D
:102C90000001C4F20101884205D040F20041C4F2B3
:102CA0000101884206D1816801F00701062904BFAD
:102CB00000207047016841F0010101600020704769
:102CC00010B5044690F83C0001284FF0020008BF00
:102CD00010BD012284F83C2084F83D0020684FF6A6
:102CE000777382689A4382600A684F2A0FDC1F2A32
:102CF00022DD202A23D0302A21D0402A4DD14B6812
:102D0000CA68194602F07CF8206840213BE06F2A2F
:102D100017DDB2F5005F20D0B2F5805F2AD0702AAF
:102D20003BD1D1E9012CCB68614601F091FF2068CD
:102D3000816841F077011AE00AB1102A2DD11146BD
:102D400021E0502A18D0602A27D14B68CA6819465A
:102D500002F068F82068602115E0D1E9012CCB6809
:102D6000614601F075FF2068816841F4804181600F
:102D700000200BE0002009E04B68CA68194602F009
:102D80003FF82068502101F06FFF0020012184F8F6
:102D90003D10002184F83C1010BD0120F6E7000032
:102DA0007047000010B5044600680169890744BFF8
:102DB000C1685FEA817138D420680169490744BF5E
:102DC000C1685FEA41713CD420680169090744BFCA
:102DD000C1685FEA017141D420680169C90644BF36
:102DE000C1685FEAC16145D420680169C9071CBF99
:102DF000C1685FEAC1714AD120680169090644BF10
:102E0000C1685FEA016149D420680169490644BF8D
:102E1000C1685FEA416148D420680169890644BFFE
:102E2000C1685FEA816147D410BD6FF002010161A2
:102E3000012121778069800745D02046FFF7B0FF48
:102E400047E06FF00401016102212177806910F4ED
:102E5000407F41D02046FFF7A3FF43E06FF0080119
:102E6000016104212177C06980073ED02046FFF729
:102E700097FF40E06FF01001016108212177C069E0
:102E800010F4407F3AD02046FFF78AFF3CE06FF015
:102E900001010161204600F0FDF8ADE76FF080010F
:102EA00001612046FFF7F4FDAEE76FF040010161DC
:102EB000204600F0F9F8AFE76FF0200101612046ED
:102EC000FFF7E8FD10BD204600F022F8204600F094
:102ED0009DF8002020776FE7204600F019F8204683
:102EE00000F094F8002020776EE7204600F010F8FC
:102EF000204600F08BF8002020776DE7204600F098
:102F000007F8204600F082F8002020776CE70000E8
:102F100070470000B0B5044690F83C00012804BF9B
:102F20000220B0BD0D464FEAB2010120032984F80A
:102F30003C0037D8DFE801F0020A12222068294657
:102F400001F09AFE206850F8181F0EE0206829460C
:102F500001F0C4FE206850F8181F16E020682946CA
:102F600001F0F2FE206850F81C1F41F008010160DA
:102F7000016821F00401016029690FE020682946F9
:102F800001F016FF206850F81C1F41F40061016039
:102F9000016821F480610160296909020268114316
:102FA00001600020002184F83C10B0BD002804BF5F
:102FB0000120704710B5044690F83D0028B9002064
:102FC00084F83C00204600F01FF8022084F83D0001
:102FD0002068211D01F098FD012084F8460084F846
:102FE0003E0084F83F0084F8400084F8410084F8F3
:102FF000420084F8430084F8440084F8450084F8D3
:103000003D00002010BD0000704700007047000028
:10301000B0B50446006800220D4601F007FE2068A6
:1030200040F2004240F48061C4F2010291420DD1AD
:10303000016A41F21112114208D1016A40F2444280
:10304000114203D1416C21F400414164016A41F213
:103050001112114208D1016A40F24442114203D1D7
:10306000016821F0010101600120082D09D0042D23
:103070000BD0002D14BF84F8410084F83E000020DE
:10308000B0BD84F840000020B0BD84F83F000020AF
:10309000B0BD000080B500680021C4F20101884283
:1030A00008BFFFF72DF980BD704700007047000092
:1030B00010B504460068406994F83D10212915D1E7
:1030C00010F0800012D000BF206850E8050F216882
:1030D00020F0800041E80502002AF5D1606B00284D
:1030E00018BFFEF793FE204601F058FF20684069A4
:1030F00094F83E10222915D110F0400012D000BFE4
:10310000206850E8050F216820F0400041E80502E2
:10311000002AF5D1A06B002818BFFEF777FE2046E5
:1031200001F014FF002010BD70470000002804BF0C
:103130000120704710B5044690F83D0028B90020E2
:1031400084F83C00204600F021F8242084F83D005B
:103150002068C16821F40051C160204601F02CFFB5
:103160002068016921F490410161416921F02A013F
:103170004161C16841F40051C160002020212064F8
:1031800084F83D1084F83E1010BD00002DE9F04792
:1031900086B00446006841F20041C4F201010026F5
:1031A0008842CDE90466CDE90266019670D041F20D
:1031B0000001C4F20101884240F0C280002743F6BA
:1031C00030000097C4F202004169002541F010016F
:1031D00041614169C4F2020501F0100100910099BA
:1031E0000097016801AE41F00201016001684FF0F3
:1031F000020801F0020100910099009701684FF068
:10320000030941F00101016000684FF0070A00F076
:103210000100009000988020019005F58060314603
:10322000CDE90287CDF81090CDF814A0FEF78EFFFF
:103230004FF40070CDE9010803A880E88006284615
:103240003146FEF783FF46F22840C4F2020040F602
:10325000B4251830C2F200054FF0006185E8830004
:103260004FF440304FF48062C5E908072846C5E9AD
:103270000372C5E90577EF61FEF7CEFE002852D054
:10328000FDF744FE40F6B4252526C2F200054DE0C8
:1032900043F630000096C4F20200416941F020017B
:1032A0004161416901F02001009100990096016897
:1032B00041F040010160006801A900F04000009069
:1032C00000984FF4844001900220CDE902060320CB
:1032D0000490082005900020C4F2020000F5C050C0
:1032E000FEF734FF40F6143546F22840C2F20005DE
:1032F000C4F202004FF020614FF4806285E8430081
:103300002846C5E90362C5E90566C5E907666E6238
:10331000FEF782FE48B1FDF7F9FD40F61435472669
:10332000C2F2000502E0252600E0472630460521CE
:103330000022A563AC63FFF787F83046FFF780F8FB
:1033400006B0BDE8F087000010B590F83E30202BA5
:103350000BD100294FF0010418BF002A01D12046EB
:1033600010BD90F83C30012B01D1022010BD01238B
:10337000002480F83C30046301F08CFE204610BD30
:10338000704700007047000040F67050C2F2000025
:10339000B0F90610002011F5FA7FB8BF0120704780
:1033A00040F67050C2F20000B0F90410002011F590
:1033B000FA7FB8BF0120704740F67050C2F200009B
:1033C000B0F904100020B1F5FA7FC8BF01207047A2
:1033D00040F67050C2F20000B0F906100020B1F5BE
:1033E000FA7FC8BF0120704740F67050C2F200005B
:1033F000B0F908100020B1F5FA7FC8BF012070476E
:1034000040F67050C2F20000B0F90210002011F531
:10341000FA7FB8BF0120704740F67050C2F200003A
:10342000B0F90010002011F5FA7FB8BF01207047F5
:1034300040F67050C2F20000B0F900100020B1F563
:10344000FA7FC8BF0120704740F67050C2F20000FA
:10345000B0F902100020B1F5FA7FC8BF0120704713
:10346000FEE70000FDF75EFB40F6E01440F67C1539
:1034700040F6D416C2F20004C2F20005C2F2000601
:1034800002F0B0F8014620461822FCF777FF2846E4
:10349000FDF724FD3046FDF73FFDFDF7C7FB00F0CB
:1034A000B1FCFDF729FD00F0ADFAFDF745FD00F098
:1034B00059FF01F089F9FDF79DFB012002F0EAF8C0
:1034C000DEE7000080B540F6642046F20041C2F21B
:1034D0000000C4F200010522002380E80E0000F184
:1034E0000C014FF4802C4FF4001E81E808508361DA
:1034F0008383FEF709FB002818BFFDF707FD80BD99
:1035000080B540F68C2046F60001C2F20000C4F2FD
:1035100000010522002380E80E0000F10C014FF4A9
:10352000802C4FF4001E81E8085083618383FEF7EE
:10353000EBFA002818BFFDF7E9FC80BD80B582B02A
:103540000020019043F63000C4F20200016800221E
:1035500041F4800101600068052100F480000190C1
:1035600001983920FEF770FF3920FEF769FF3A20F5
:1035700005210022FEF768FF3A20FEF761FF02B046
:1035800080BD000010B596B048F2D030C0F6000003
:1035900090E80E50D0E905400F91CDE914400FA8F6
:1035A000002110921193CDF848C0CDF84CE002F004
:1035B0007FF840F66021C2F20001086048F2B430A2
:1035C000C0F6000090E81E50806908910E9008A88F
:1035D000002109920A930B94CDF830C0CDF834E065
:1035E00002F066F840F66811C2F20001086048F285
:1035F0009830C0F6000090E81E5080690191079055
:1036000001A80021029203930494CDF814C0CDF8D0
:1036100018E002F04DF840F65011C2F200010860C7
:1036200016B010BD2DE9F04F87B0002643F63000EC
:103630000696CDE90466CDE902660196C4F2020061
:10364000016841F6000741F0100101600168C4F211
:10365000020701F010010191019901960168012210
:1036600041F00201016001684FF0010A01F002011E
:10367000019101990196016841F0400101600168E2
:1036800001F04001019101990196016841F00801A2
:103690000160016801F0080101910199019601683A
:1036A00041F004010160016801F0040101910199F8
:1036B0000196016841F001010160016801F001011A
:1036C000019101990196016841F4807101600168DE
:1036D00001F48071019101990196016841F0800126
:1036E0000160016801F08001019101990196016872
:1036F00041F02001016000684FF4005100F020000B
:10370000019001983846FEF7EFFD38464FF4FF71FF
:103710000022FEF7E9FDA7F5006948464FF4006175
:103720000022FEF7E1FDA7F5806840464FF4804196
:103730000022FEF7D9FD4FF2FF7002AD02904FF06C
:10374000030B48462946CDE903B6FEF7FFFC4CF6CD
:103750007F70CDE9020BA7F5A05029460496FEF72D
:10376000F5FC42F2FE10CDE9020A38462946CDE9C1
:103770000466FEF7EBFC4FF6FC40A7F54064CDE98C
:10378000020B204629460496FEF7E0FC4FF6FF7038
:10379000CDE9020BA7F5805029460496FEF7D6FC2A
:1037A00049F6FF50CDE9020BA7F5C0502946049613
:1037B000FEF7CCFC49F60140CDE9020B384629461C
:1037C0000496FEF7C3FC40F6FF70CDE9020B07F547
:1037D000006029460496FEF7B9FC4FF6FC70CDE96F
:1037E000020B07F5806029460496FEF7AFFC4BF606
:1037F000FF70CDE9020B404629460496FEF7A6FC71
:103800004FF40060CDE9020A48462946CDE9046636
:10381000FEF79CFC4FF440700290022003A981E85F
:1038200041080720069020462946FEF78FFC4FF4FA
:103830008040CDE9020A40462946CDE90466FEF7FC
:1038400085FC07B0BDE8F08F80B586B040F6BC308F
:103850000021C2F200004FF08042592340F2E73CC1
:10386000CDE90411CDE90211CDE90011C0E9002331
:10387000C0E9021C01618161FFF76AF9002818BFE5
:10388000FDF744FB4FF48050029040F6BC30C2F28A
:10389000000002A9FFF714FA002818BFFDF736FB55
:1038A0000020CDE9000040F6BC30C2F200006946BD
:1038B000FFF7F2F8002818BFFDF728FB06B080BD1F
:1038C00010B58EB040F6044040F200420021C2F232
:1038D0000000C4F20002592363240D91CDE90B11BD
:1038E000CDE90911CDE90711CDE90511CDE90311A4
:1038F000CDE90111C0E90023C0E902140161816131
:10390000FFF726F9002818BFFDF700FB4FF48050A1
:103910000A9040F60440C2F200000AA9FFF7D0F96D
:10392000002818BFFDF7F2FA40F60440C2F200008A
:10393000FFF73CFB002818BFFDF7E8FA20200890AD
:1039400040F604400024C2F2000008A90994FFF7E1
:10395000A3F8002818BFFDF7D9FA6020019040F2C3
:10396000F310CDE9020440F60440C2F2000001A9C0
:1039700000220594FFF7CEFA002818BFFDF7C6FA1B
:103980000EB010BD80B540F64C4041F20001C2F2CD
:103990000000C4F2010148F2A062C0F2010200235B
:1039A00080E80E0000F10C014FF4806C4FF00C0E1B
:1039B00081E80850C0E90633FFF7B8FB002818BFBC
:1039C000FDF7A4FA80BD000080B540F6904041F2BA
:1039D0000041C2F20000C4F2010100234FF00C0CC0
:1039E0004FF4E13280E80E00C0E90333C0E905C3BB
:1039F000C361FFF79BFB002818BFFDF787FA80BD66
:103A0000FEE70000B0B52DED108B40F2051040F23E
:103A10000411C2F20000C2F2000100780978884265
:103A200000F0D68140F20814C2F2000494F8440871
:103A300001286FD19FEDE88A9FEDE89A9FEDE8BAE3
:103A40009FEDE8DADFEDE88ADFEDE89ADFEDE8AA3E
:103A5000DFEDE8BA40F2680140F27402B7EE00AA66
:103A6000B3EE0ECAB0EE00EAB6EE00FA04F5FA7054
:103A7000C2F20001C2F20002B0EE480AF0EE6B0A98
:103A8000B0EE6B1AF0EE6B1AB0EE492AF0EE492A4E
:103A9000B0EE4A3AF0EE4B3AB0EE4C4AF0EE4D4AF8
:103AA000B0EE4E5AF0EE4F5AB0EE686AF0EE696A28
:103AB000B0EE6A7AF0EE6B7A01F048FC40F23C011D
:103AC00040F2480204F53470C2F20001C2F2000272
:103AD000B0EE480AF0EE6B0AB0EE492AF0EE492A41
:103AE000B0EE4A3AF0EE4B3AB0EE4C4AF0EE4D4AA8
:103AF000B0EE4E5AF0EE4F5AB0EE686AF0EE696AD8
:103B0000B0EE6A7AB0EE6B1AF0EE6B1AF0EE6B7AEA
:103B100001F01CFC94F84408032840F0AA809FEDB3
:103B2000AFBA9FEDB0AA9FEDB38A40F23002B3EE78
:103B30000E9ADFEDB12A9FEDB13AC2F200022046A3
:103B40000021B0EE480AF0EE4B0AB0EE4B1AF0EE50
:103B5000491AB0EE4A2AF0EE483A00F055FB40F21E
:103B600000059FEDA7CAC2F2000504F204402946F1
:103B7000B0EE4C0AFCF7B4FD04F274402946B0EEF6
:103B80004C0AFCF7ADFD04F2E4402946B0EE4C0AC5
:103B9000FCF7A6FD04F254502946B0EE4C0AFCF79F
:103BA0009FFD9FED8DCA9FED8EEADFED8F9ADFEDD1
:103BB0008FAADFED8FBA40F2680140F27402B7EECF
:103BC00000DAB0EE00FAF6EE008A04F5FA70C2F2FE
:103BD0000001C2F20002B0EE4C0AF0EE480AB0EE6C
:103BE000481AF0EE481AB0EE4B2AF0EE4B2AB0EE2F
:103BF0004D3AF0EE4E3AB0EE494AF0EE4A4AB0EE97
:103C00004F5AF0EE685AB0EE696AF0EE6A6AB0EEAA
:103C10006B7AF0EE487A01F099FB40F23C0140F2F9
:103C2000480204F53470C2F20001C2F20002B0EEA4
:103C30004C0AF0EE480AB0EE4B2AF0EE4B2AB0EEFA
:103C40004D3AF0EE4E3AB0EE494AF0EE4A4AB0EE46
:103C50004F5AF0EE685AB0EE696AF0EE6A6AB0EE5A
:103C60006B7AB0EE481AF0EE481AF0EE487A01F09E
:103C70006DFB94F84408022840F0AA809FED57BAE3
:103C80009FED58AA9FED5B8A40F23002B3EE0E9A88
:103C9000DFED592A9FED593AC2F200022046002179
:103CA000B0EE480AF0EE4B0AB0EE4B1AF0EE491AAD
:103CB000B0EE4A2AF0EE483A00F0A6FA40F20005CB
:103CC0009FED4FCAC2F2000504F204402946B0EE4F
:103CD0004C0AFCF705FD04F274402946B0EE4C0A8C
:103CE000FCF7FEFC04F2E4402946B0EE4C0AFCF777
:103CF000F7FC04F254502946B0EE4C0AFCF7F0FCF5
:103D00009FED35CA9FED36EADFED379ADFED37AA32
:103D1000DFED37BA40F2680140F27402B7EE00DA24
:103D2000B0EE00FAF6EE008A04F5FA70C2F2000175
:103D3000C2F20002B0EE4C0AF0EE480AB0EE481AA9
:103D4000F0EE481AB0EE4B2AF0EE4B2AB0EE4D3AA8
:103D5000F0EE4E3AB0EE494AF0EE4A4AB0EE4F5A13
:103D6000F0EE685AB0EE696AF0EE6A6AB0EE6B7A0D
:103D7000F0EE487A01F0EAFA40F23C0140F24802E3
:103D800004F53470C2F20001C2F20002B0EE4C0A37
:103D9000F0EE480AB0EE4B2AF0EE4B2AB0EE4D3A68
:103DA000F0EE4E3AB0EE494AF0EE4A4AB0EE4F5AC3
:103DB000F0EE685AB0EE696AF0EE6A6AB0EE6B7ABD
:103DC000B0EE481AF0EE481AF0EE487A01F0BEFA6A
:103DD000BDEC108BB0BD00BF000034439A99993EF2
:103DE0003333333F295C4F3F0080BB440080BB45E9
:103DF0008FC2F53C000000000000FA4500803B4502
:103E00000000804610B540F20814C2F2000404F22B
:103E10006470FDF7C5FB04F2747000F0B9FD04F5A1
:103E2000F160042110ED040A0139B0EEC00A80ED02
:103E3000000A00F10400F5D100206FF0030104F541
:103E4000F36200BF131813ED080A13ED071A0830C8
:103E500030EE010A5318082801F1040183ED010A2C
:103E6000F0D010BDA0F2012106291CD80FF20400E9
:103E7000DFE801F0042B40556B7C8D0040F60020FC
:103E8000C2F20000018801811188538809BA090C27
:103E9000018019BA9388090C418019BA9279090CEA
:103EA00081808271704750287AD0512818BF70479E
:103EB000508840F6CC11C2F200010880908840F68C
:103EC000CE11C2F200010880704740F60020C2F215
:103ED000000041894182118809BA090C4181518849
:103EE00009BA090C8181918809BA090CC1819179BB
:103EF0000174704740F60020C2F20000818A81837D
:103F0000118809BA090C8182518809BA090CC18249
:103F1000918809BA090C018391798176704740F63E
:103F20000020C2F20000C18BC184118809BA090CBB
:103F3000C183518809BA090C0184918809BA090C16
:103F40004184917980F824107047108840F6402110
:103F500000BA5288000CC2F20001088010BA40F684
:103F60004221000CC2F2000108807047108840F620
:103F7000D01100BA5288000CC2F20001088010BAB9
:103F800040F6D211000CC2F2000108807047508840
:103F900040F2F40100BA000CC2F200010880704740
:103FA000508840F63C21C2F200010880908840F61B
:103FB0003E21C2F20001088070470000FEE70000C9
:103FC00000F0070080F00703042B28BF04234FF004
:103FD000FF3C03380CFA03F338BF002099438140BB
:103FE0000CFA00F022EA00000843704710B52DEDEE
:103FF000028B00284FD0B0EE402A90ED010A90EDE0
:104000000C3A0446B7EE008AC06B84ED0B3A23EEFF
:10401000003A38EE400A20EE200AA063D4E91601E7
:1040200033EE000AB5EE401A84ED0C0A30EEC20AF7
:10403000F1EE10FAC4E9170184ED0D2A84ED160A99
:1040400007DDB0EE600AF0EE420A01F0BFF984ED40
:10405000160A2078012823D0002840F0CC8094ED67
:10406000031AD4ED040A94ED160A01F0D7F994ED81
:10407000061A9FED643A20EE012AB0EEC01AB4EEA3
:10408000431AF1EE10FA84ED160A84ED102A51DD80
:104090000020606458E09FED5A0ABDEC028B10BD11
:1040A00094ED031AD4ED040A94ED160A01F0B6F962
:1040B00094ED171A94ED065A94ED076A30EE412AF2
:1040C00025EE022A20EE065A31EE011A94ED186A06
:1040D00094ED087A30EE411A94ED023A84ED102AFC
:1040E00084ED115A31EE061A32EE052A94ED0E5A7D
:1040F00094ED054AD4E9130184ED131A21EE071A51
:1041000084ED160A84ED121A32EE011A23EE052A06
:1041100038EE433AB0EEC00A21EE031AB4EE440A78
:1041200032EE011AF1EE10FAC4E9140184ED0F1A0F
:104130004ADB4BE094ED073A94ED114A20EE033A46
:1041400034EE033A84ED113A94ED0A3A94ED176A8D
:1041500094ED114A94ED085AD4E9130130EE466A01
:10416000B4EE434A26EE050AF1EE10FAC4E9140152
:1041700084ED120A84ED136A02DD84ED113A08E041
:10418000B1EE433AB4EE434AF1EE10FAB8BF84ED13
:10419000113A94ED115A94ED023A94ED0E6A94EDB1
:1041A000054A32EE052A30EE020A23EE062A38EEE0
:1041B000433A20EE030AB4EE441A32EE000AF1EE5E
:1041C00010FA84ED0F0A01DA0020E06394ED090A89
:1041D00094ED0F1AB4EE401AF1EE10FA02DD84ED00
:1041E0000F0A08E0B1EE400AB4EE401AF1EE10FA00
:1041F000B8BF84ED0F0A94ED0F0ABDEC028B10BD21
:104200000000000000803B45002818BF002A00D1B4
:104210007047031DC3EC040AC0ED053A0170116834
:1042200081615168C161916880ED0C0A01620021D1
:10423000C163C0ED092A80ED0A3A70470000000012
:10424000EFF30980BFF36F8F154B1A681EF0100F44
:1042500008BF20ED108A20E9F04F10602DE9090019
:104260004FF0500080F31188BFF34F8FBFF36F8F73
:1042700001F090FF4FF0000080F31188BDE80900C5
:1042800019680868B0E8F04F1EF0100F08BFB0ECD6
:10429000108A80F30988BFF36F8F704700BF00BF9B
:1042A000D40C002040F69410C2F2000000210162FC
:1042B0007047000040F69410C2F2000000214161F6
:1042C0007047000080B540F68850C2F200005021CF
:1042D00001F0DAFD80BD000040F69410C2F200004B
:1042E000002141627047000040F67050C2F20000A9
:1042F000B0F906009FED041A00EE100AB8EEC00AED
:1043000080EE010A704700BF0000254440F670505F
:10431000C2F20000B0F908009FED041A00EE100A86
:10432000B8EEC00A80EE010A704700BF00002544C5
:1043300040F69410C2F20000002181627047000034
:10434000074B19680868B0E8F04F80F30988BFF39D
:104350006F8F4FF0000080F31188704700BF00BFDF
:10436000D40C00202DE9F04F81B02DED028B40F2EE
:104370000814C2F2000494F84408032840F098811D
:1043800040F2FE0AC2F2000A9AF9000040F6F8195B
:1043900040F6FC180128C2F20009C2F200081CDC39
:1043A00040F6581340F65917C2F20003C2F2000754
:1043B00019783A78114329D040F2F601C2F200018F
:1043C000097871B1012913D0FF291CD104EB8000B9
:1043D000D0F8E01700F5FE6010E00020C4F82808CF
:1043E0000FE104EB8000D0F8C01700F5FA6005E09B
:1043F00004EB8000D0F8001800F50160C9F8001047
:104400000068C8F8000000201870387040F6E0100E
:10441000C2F20000C07A03283FD0012840F0AD80EE
:10442000FEF7D6FF0546FEF7AFFF06461020FCF765
:1044300067FA07462020FCF763FAE9193044081AA6
:1044400000EE100AB8EEC00A01F04AF8B2EE048A93
:1044500020EE080A01F0E4F840F6541B0028C2F2EE
:10446000000B59D1FEF7B4FF0546FEF78DFF064657
:104470001020FCF745FA07462020FCF741FAE9191D
:104480003044081A00EE100AB8EEC00A01F028F80D
:1044900020EE080A8BED000A3EE0FEF799FF054684
:1044A000FEF772FF06461020FCF72AFA0746202086
:1044B000FCF726FAE9193044081A00EE100AB8EEA3
:1044C000C00A01F00DF89FEDBC8A20EE080A01F049
:1044D000A7F8E8B9FEF77CFF0546FEF755FF06464C
:1044E0001020FCF70DFA07462020FCF709FAE9191D
:1044F0003044081A00EE100AB8EEC00A00F0F0FFCF
:1045000040F6541020EE080AC2F2000080ED000AC6
:1045100040F6541BC2F2000B9BED000A01F080F83C
:1045200058BBFEF755FF0546FEF72EFF0646102046
:10453000FCF7E6F907462020FCF7E2F9E9193044D8
:10454000081A00EE100AB8EEC00A00F0C9FF20EE0B
:10455000080A01F065F880B19BED000A99ED001A98
:1045600098ED002A30EE011A30EE020A002089EDA3
:10457000001A88ED000ACBF80000FEF735FF40F680
:104580006415C2F2000520B94FF48060FCF7B8F959
:1045900050B1287840B901202870FCF7C7FC40F2E0
:1045A000F801C2F200010860287850B340F2F00030
:1045B000C2F200000068C4F82808FCF7B7FC40F21B
:1045C000F8029AF80010C2F2000240F25407126892
:1045D0004BB2C2F2000757F82330801A984210D32A
:1045E00040F658120020C2F20002107040F6591234
:1045F000C2F20002C4F8280828701070481C8AF81B
:10460000000004F2747090ED000A04F62800D0ED6A
:10461000000A9FED6A1A2046FFF7E8FCBDEEC00ACB
:1046200004F5EF6110EE100A91ED000AD9ED000AD1
:10463000A4F8340804F20440FBF78AFFBDEEC00A78
:1046400010EE100AA4F8360804F27C7099ED001AF6
:1046500090ED000AF1EE410A04F27440FBF778FF96
:10466000BDEEC00A04F5F06110EE100A91ED000AEB
:10467000D8ED000AA4F8380804F2E440FBF768FF1C
:10468000BDEEC00A10EE100AA4F83A0804F28470D5
:1046900098ED001A90ED000AF1EE410A04F2545030
:1046A000FBF756FFBDEEC00A10EE100AA4F83C0856
:1046B00094F8440802286ED140F2FE00C2F20000D5
:1046C00000210170FFF710FE00F00AFF9FED3C1A79
:1046D00004F2747160EE010A04F6280091ED000AFC
:1046E0009FED361AC0ED000A2046FFF77FFCBDEEB5
:1046F000C00A10EE100AA4F83408FFF707FE00F015
:10470000EFFE9FED301A04F5EF6060EE010A90EDC8
:10471000000A04F62C0504F20440C5ED000AFBF77C
:1047200017FFBDEEC00A10EE100AA4F8360804F216
:104730007C7095ED001A90ED000AF1EE410A04F24A
:104740007440FBF705FFBDEEC00A04F5F06110EE02
:10475000100A91ED000AD5ED000AA4F8380804F219
:10476000E440FBF7F5FEBDEEC00A10EE100AA4F817
:104770003A0804F2847095ED001A90ED000AF1EE0B
:10478000410A04F25450FBF7E3FEBDEEC00A10EEFE
:10479000100AA4F83C0894F84408012806D8002020
:1047A000A4F83C08C4F83408C4F83808BDEC028BFF
:1047B00001B0BDE8F08F00BF0000C842000000005B
:1047C00000007A450000FA4470B52DED068B40F2EA
:1047D0000814C2F2000440F6F81004F5EF65C2F2C6
:1047E000000004F27C7695ED000A90ED002A96ED2B
:1047F000001A30EE423A31EE422A23EE022AB5EE9A
:10480000402AF1EE10FA33DA9FED449AB7EE088AA7
:1048100030EE010AF0EE480AB0EE491A00F0FEFD53
:10482000B4F93608F0EE480A01EE100AB8EEC11AE3
:1048300031EE400ABDEEC00A10EE100A95ED000AF6
:1048400096ED001AA4F8360830EE010AB0EE491AC7
:1048500000F0E4FDB4F9380801EE100AB8EEC11A10
:1048600031EE400ABDEEC00A10EE100AA4F8380876
:1048700040F6FC1004F5F065C2F2000004F2847604
:1048800095ED000A90ED002A96ED001A30EE423ABE
:1048900031EE422A23EE022AB5EE402AF1EE10FA5A
:1048A00039DA9FED1E9AB7EE088A30EE010AF0EE73
:1048B000480AB0EE491A00F0B1FDB4F93A089FED8C
:1048C00018AA01EE100A20EE0A0AB8EEC11A31EE5B
:1048D000400ABDEEC00A10EE100A95ED000A96EDF2
:1048E000001AF0EE480A30EE010AB0EE491AA4F8B8
:1048F0003A0800F093FDB4F93C0820EE0A0A01EEF4
:10490000100AB8EEC11A31EE400ABDEEC00A10EE30
:10491000100AA4F83C08BDEC068B70BDCDCCCC3D94
:104920009A99993F10B540F6442CC2F2000C4FF012
:10493000000ECCE902EE40F66C1E0824C2F2000E16
:10494000CCF81040040A8EF80100080A8EF8020024
:10495000100A8EF80400180A8EF806004FF4007052
:104960008EF80730CCF8000040F68C2040F620632B
:104970008EF803108EF80520C2F20000C2F2000388
:10498000614672468EF80040FCF74EFE10BD0000F6
:1049900040F2F401C2F20001B1F90010042200EE6D
:1049A000101A40F60021B8EEC00AC2F2000180EDF4
:1049B000000A0438083900BF31F90A3F013A00EE15
:1049C000103AB8EEC00A80ED020A00F10400F3D1FB
:1049D0007047000040F69411C2F2000101EB800024
:1049E0000021416070470000012000F053FEFBE70A
:1049F00080B54FF0500080F31188BFF36F8FBFF385
:104A00004F8F01F005FD30B14EF60450CEF200009C
:104A10004FF080510160002080F3118880BD0000BC
:104A200010B592B006AC20463021FBF71EFD0020E9
:104A300043F640010590CDE90300CDE90100009067
:104A4000C4F202010A6842F080520A60096801F06B
:104A5000805100910099009047F20000C4F20000DC
:104A6000016841F44041016000684FF4800100F4A6
:104A7000404000900098012006904FF480300D9146
:104A80000621079002200E91B4210C90CDE90F1061
:104A9000042011902046FDF757FEB0B9FDF7E8FC61
:104AA00098B90F20019002200290002003904FF44B
:104AB000A05004904FF48050059001A80521FDF707
:104AC00015FD002804BF12B010BDFCF71FFA00004E
:104AD0004EF68850CEF20000016841F4700101608A
:104AE0007047000080B540F67430C2F20000FEF757
:104AF00059F980BD80B500F0A7F940F6BC30C2F28C
:104B00000000FEF74FF980BD10B540F6FF3E036888
:104B1000C4F2000E40F2004C7045C4F2010C0FDCF0
:104B2000B0F1804F19D040F20042C4F2000290422E
:104B300013D040F60002C4F2000290420DD010E003
:104B400040F60042C4F20002904206D0604504D014
:104B50000022C4F20102904203D14A6823F070039C
:104B6000134341F6FF72C4F2000290420DDC70451F
:104B70001FDCB0F1804F41D040F20042C4F200028D
:104B800090423BD040F6000221E043F6FF72C4F2AF
:104B90000102904220DC42F20002C4F20002904284
:104BA0002CD00022C4F20102904227D0604525D0CB
:104BB00028E040F60042C4F2000290421ED041F6C6
:104BC0000002C4F20002904218D041F60042C4F242
:104BD0000002904212D015E044F20002C4F2010239
:104BE00090420BD044F60002C4F20102904205D07C
:104BF00044F20042C4F20102904203D1CA6823F495
:104C00004073134323F080024B69D1F800E08C68B5
:104C10001A430260C46240F48062C0F828E0624532
:104C200004BF096901630121416110BD80B501F034
:104C30001F014FF0010CD0F820E00CFA01F32EEA2E
:104C400003030362036A02FA01F11943016280BDA2
:104C5000D0F808C011432CF47F4C41EA032141EA0B
:104C60000C01816070470000826822F070021143DD
:104C700041F0070181607047B0B5026A40F200451B
:104C800022F001020262026AD0F804E0D0F818C0F3
:104C90008C6822F0020240F48063C4F20105AB424A
:104CA00042EA040205D1CC6822F00C0224F004048C
:104CB00022430C68AB4207D1D1E905532EF4407E64
:104CC00045EA0E0545EA030E2CF073032343C0F8B2
:104CD00004E08361496841630262B0BD70B5026A55
:104CE00040F2004422F010020262026AD0F804E0AE
:104CF000D0F818C08D6822F0200240F48063C4F21E
:104D00000104A34242EA051207D1CD686FF04006C4
:104D100022F0C00206EA05152A430D68A34207D116
:104D2000D1E905642EF4406343EA860343EA840E26
:104D30002CF4E64343EA0523C0F804E083614968A4
:104D40008163026270BD000070B5026A40F20044E7
:104D500022F480720262026AD0F804E0D0F81CC02B
:104D60008D6822F4007240F48063C4F20104A3420F
:104D700042EA052207D1CD6840F2FF462D0222F417
:104D80004062B5432A430D68A34207D1D1E90564C7
:104D90002EF4405343EA061343EA041E2CF0730337
:104DA0002B43C0F804E0C3614968C163026270BD6F
:104DB00070B5026A40F2004622F480520262026A32
:104DC0004368D0F81CE00C68D1F808C040F4806556
:104DD000C4F20106B54204D14D6923F4804343EA8D
:104DE00085132EF4E64646EA04264360C66122F4A3
:104DF0000052496842EA0C320164026270BD000050
:104E0000D0F820C0036A23F001030362836923F012
:104E1000F00343EA02122CF00A0319438261016293
:104E200070470000036A23F0100303628369D0F81F
:104E300020C023F4704343EA02322CF0A00343EA7B
:104E4000011182610162704780B540F62820C2F2EC
:104E50000000016801310160FBF75CFDFBF782FD9A
:104E600080BD000010B5846B2068406994F83D1047
:104E7000212907D110F0800004D00020E0842046D2
:104E800000F08CF82068406994F83E10222907D180
:104E900010F0400004D00020E085204600F056F8D5
:104EA000206C40F0100020642046FEF73DF910BD54
:104EB00080B50168806B0968C9052FD40021C185C0
:104EC000016851E8031F026821F4807142E803136E
:104ED000002BF5D1016851E8051F026821F001019E
:104EE00042E80513002BF5D1016851E8051F02685F
:104EF00021F0400142E80513002BF5D1202180F874
:104F00003E10016B012909D1016851E8031F0268B5
:104F100021F0100142E80313002BF5D1016B0129A8
:104F200003D1818DFEF7C2F880BDFEF729FA80BD5E
:104F300080B5806B016B012904D1818D4908FEF792
:104F4000B5F880BDFEF71EFA80BD0000016851E88B
:104F5000031F026821F4907142E80313002BF5D17E
:104F6000016851E8051F026821F0010142E80513BC
:104F7000002BF5D1016B01290AD100BF016851E86E
:104F8000031F026821F0100142E80313002BF5D142
:104F9000202180F83E10002101637047016851E82C
:104FA000031F026821F0C00142E80313002BF5D172
:104FB000202180F83D10704710B504460068D4E900
:104FC00002C22369016921F4405111430161626900
:104FD00043EA0C01E3691143C268194349F20C63C7
:104FE0009A431143C1604169A26921F4407141F2C1
:104FF0000043114340F48062C4F201039A424161CC
:1050000002D1FDF75BFB01E0FDF746FBE169636858
:105010001922B1F5004FA0FB02011CD15A00DB0F91
:10502000FBF734F948F21F51C5F2EB11A0FB012345
:105030005A096FF0630302FB0300322303EBC00045
:10504000A0FB01014FF4F87000EA111000EB021010
:10505000C1F342111AE09A009B0FFBF717F948F2CF
:105060001F51C5F2EB11A0FB01235A096FF0630336
:1050700002FB0300322303EB0010A0FB0101F02030
:1050800000EA511000EB0210C1F3431122680843FB
:10509000906010BD70B582B0134600260446816250
:1050A00083850664222084F83E000A462168A06BAE
:1050B00044F6B16C44F6317E44F66565C0F6000CEA
:1050C000C0F6000EC0F600050431C0E90FCEC0E9FD
:1050D0001356FDF709F801962068016801914068B0
:1050E00001900198206984F83C6048B1206850E83C
:1050F000030F216840F4807041E80302002AF5D1D3
:10510000206850E8050F216840F0010041E80502E1
:10511000002AF5D1206850E8050F216840F04000D2
:1051200041E80502002AF5D1002002B070BD000060
:1051300080B582B040F64C40C2F2000000680168C1
:10514000C9062BD5002101910168019140680190A9
:10515000019840F64C40C2F20000FDF7A9FF40F66E
:10516000B420C2F20000006840F6F8524068C2F273
:105170000002C0F12400C1B21229107003D100F066
:10518000BDFDFFF7D5F840F64C4040F6F951C2F2AC
:105190000000C2F200012422FEF7D6F802B080BD62
:1051A00010B582B040F69040C2F20000006801687D
:1051B000C90626D500210191016840F6904401916D
:1051C0004068C2F20004019001982046FDF770FF8C
:1051D00040F61430C2F20000006840F6D851406832
:1051E000C2F20001C0F150000870FFF775F8FBF73C
:1051F00085FC40F68851C2F2000120465022FEF79D
:10520000A3F802B010BD0000FEE7000040F69410C5
:10521000C2F200000021C1617047000040F6941006
:10522000C2F200000021816170470000002848BFE1
:10523000704700F01F01012202FA01F14EF2001244
:105240004009CEF2000242F8201070474EF60C5092
:10525000CEF200000068C0F3022070474EF61453EF
:1052600000F00F02CEF2000309011A4400F160437E
:10527000B0F1FF3FC8BF03F56442117070470000F2
:105280004EF60C51CEF200010A684FF6FF031A40A9
:1052900060F30A2242F0806040F0FD7008607047C1
:1052A000B0B58AB040F6642401200021C2F20004A7
:1052B0006D460890CDE90610CDE90011CDE9021147
:1052C000CDE9041120462946FCF700FA2046FCF7F8
:1052D00061FD20460221FCF793F940F68C240E2054
:1052E000C2F200040990059020462946FCF7EEF929
:1052F0002046FCF74FFD20460221FCF781F90AB059
:10530000B0BD000010B52DED028B044680ED321AC1
:1053100080ED330AC0ED350A6430F0EE410AB0EE9C
:10532000611AB0EE428AFEF761FEF0EE400A94ED9B
:10533000350A2046B0EE481AC4ED340AFEF756FE90
:1053400084ED360ABDEC028B10BD0000B0B52DED2A
:10535000108BB0EE62DAB0EE42EAB0EE60FA1446BC
:105360000A46054664300021F0EE410AB0EE611AAB
:10537000F0EE431AB0EE632AF0EE452AB0EE653A3D
:10538000F0EE473AB0EE678AB0EE669AB0EE46AA03
:10539000B0EE64BAB0EE44CAFEF736FF28460021EC
:1053A0002246B0EE4F0AF0EE4E0AB0EE4D1AF0EE85
:1053B0004C1AB0EE4B2AF0EE4A2AB0EE493AF0EE23
:1053C000483AFEF721FFBDEC108BB0BD80B52DED46
:1053D000048B30EE608AB0EE480AB0EE419A00F0DD
:1053E0002FFDA8B14042B0EEC80A02EE100A39EE15
:1053F000401AB8EEC22A21EE021AB0EEC12AB4EE6B
:10540000420AF1EE10FAB8BFB0EE481AB0EE418A87
:10541000B0EE480ABDEC048B80BD0000B0B52DEDA8
:10542000068BB0EE408AB0EEC00AB4EE410AF1EE4F
:1054300010FAB0EE609A24DD10EE100A02F066FE5B
:1054400041EC1A0B19EE100A02F060FE41EC110B50
:10545000B0EE4A0AF0EE6A0A01F032F9B0EE409A74
:10546000B0EE480AF0EE609A00F0EAFC02F000FBB1
:1054700002460B4651EC190B02F04EFB41EC100BAF
:1054800025E018EE100AB0EE41AA02F03FFE0446F5
:105490001AEE100A0D4602F039FEB7EE000A30EEA1
:1054A000490A41EC180B10EE100A02F02FFE41ECF5
:1054B000110BB0EE480AF0EE680A01F001F953EC66
:1054C000102B2046294602F079F941EC100B51ECE3
:1054D000100B02F085F800EE100ABDEC068BB0BD93
:1054E000B0EE401AB7EE000AB4EE401AF1EE10FA30
:1054F000C8BF7047BFEE002AB4EE421AB0EE410AB0
:10550000F1EE10FAB8BFB0EE420A7047B0B52DED1B
:105510000E8B21EE21CAB0EE418A20EEA11A1CEEBC
:10552000100AB0EE61BAB0EE609A2CEE21DA31EEDC
:1055300000AA02F0EBFD02460B4602F0EDFAB2EED5
:10554000000A28EE000AB0EECAEA20EE0E0A04466F
:1055500010EE100A0D4602F0D9FD02460B46204619
:10556000294602F06FF841EC100B01F0D9FEB4EEC1
:105570004DEAF1EE10FA16DD51EC100B02F030F8A6
:1055800000EE100A30EE4C0AB6EE001A20EE01BA18
:10559000B0EE4A0A00F054FC00EE100AB8EEC00A61
:1055A0002BEE000A01E08AEE0B0A30EE090AB0EE9B
:1055B000C01AB4EE4C1AF1EE10FAB1EE488A0ADDC8
:1055C00000F03EFC00EE100AB8EEC00A28EE000A19
:1055D000BDEC0E8BB0BD20EE080A80EE0C0ABDECCF
:1055E0000E8BB0BD40F67050C2F200007047000054
:1055F000B4EE600A0020F1EE10FA4FF00001B4EEB4
:10560000410AA8BF0121F1EE10FAD8BF01200840DD
:10561000704700000128A8BF012040EAE0707047F1
:105620009FED051AB0EEC00A0020B4EE410AF1EE7B
:1056300010FAB8BF0120704717B7D138FCF76EFEDB
:10564000FFF7EEF9FDF7EEFFFDF778FFFDF73AFF04
:10565000FDF756FFFEF796F9FEF7F6F8FEF730F97C
:10566000FEF7B2F900F040FBFEF72CFEFFF718FE44
:1056700040F6BC30C2F20000FDF7CEFAFDF782FF23
:1056800000F010F8FEE70000B0F1840118BFC11C63
:105690000846704780B5002808BF012000F008FDCB
:1056A000002080BD80B500F02DFD002080BD0000F1
:1056B0002DE9F04385B047690C46A7B1856995B1DE
:1056C000D0E90086D0F81090B0F90800FFF7DCFFB1
:1056D000CDE90007304641464A462346029500F090
:1056E0005BFE049013E0D0E90056078AB0F9080089
:1056F000FFF7CAFF0DF1100C0090304629463A46DC
:105700002346CDF804C000F013FE012803D104980D
:1057100005B0BDE8F083002005B0BDE8F0830000CF
:10572000F0B581B00D4644F6305140F6D446C2F291
:105730000001C2F200060F6831680446081D00F03F
:10574000B5FB10B1601C0FD019E0306844F644225C
:10575000C06AC2F200020121136801FA00F023EAD4
:1057600000001060601C0AD14DB13068011D44F684
:105770000850C2F2000000F0E7FB01B0F0BD306855
:10578000E41944600AD340F6E040C2F20000006829
:105790003168043100F0BAFB01B0F0BD40F6D840EA
:1057A000C2F2000000683168043100F0AFFB44F63B
:1057B000D440C2F2000001688C4238BF046001B0DE
:1057C000F0BD000070B5044600F0D6FB44F634206E
:1057D000C2F20000016840F6D44501310160C2F216
:1057E0000005296844F6FC46C2F2000641B1306863
:1057F00060B92868E16AC06A884298BF2C6005E0F9
:105800002C600068012801D100F00CF944F640201A
:10581000C2F20000016844F6442201310160E06AEE
:10582000C2F200020121136881401943116040F661
:10583000E44100EB8000C2F2000101EB8000211D79
:1058400000F082FB00F0BCFB306880B12868E16AA0
:10585000C06A884228BF70BD4EF60450CEF20000E8
:105860004FF080510160BFF34F8FBFF36F8F70BD5A
:10587000F0B581B044F63825C2F200052868E0B1E1
:1058800044F61C5644F63427C2F20006C2F2000762
:1058900000F072FBF068C468201D00F007FB386858
:1058A0000138386028680138286000F089FB2046FC
:1058B00000F006F828680028EAD101B0F0BD000029
:1058C00010B5044690F85100022808BF10BD012809
:1058D00003D030B9206B00F08BFB204600F088FB32
:1058E00010BD4FF0500080F31188BFF36F8FBFF3EE
:1058F0004F8F00BFFEE7000040F62860C2F20000B4
:10590000C21D22F0070210F0070CA0EB020318BF23
:10591000104644F60052C2F200020021C2E9000122
:105920004FF47052BCF1000F18BF03F570520244DF
:10593000083A40F6DC4322F00702C2F200031A6084
:10594000C2E90011111A1A68C0E9002144F6D040DA
:10595000C2F20000016044F67420C2F2000001604F
:1059600044F64820C2F20000012101707047000097
:1059700040F6E4444EF60455C2F20004CEF20005AF
:105980004FF08056FFF774FF20680228FAD32E608C
:10599000BFF34F8FBFF36F8FF4E700002DE9F0479F
:1059A000DDE909878246386B089C00EB82000438E9
:1059B000994620F0070679B107F13400002200BFB4
:1059C0008B5C83548B5C1BB10F2A02F10102F7D36D
:1059D000002087F8430002E0002087F8340000250B
:1059E000381D062C28BF0624FC62C7E9114500F0CB
:1059F00089FA07F1180000F085FA84F00700B86111
:105A0000304651464A463F617F62FD6487F85050F8
:105A100000F056F9B8F1000F386018BFC8F80070F0
:105A2000BDE8F087B0B540F6E4450024C2F20005B9
:105A3000281900F05BFA14348C2CF9D144F64C246C
:105A4000C2F20004204600F051FA44F66025C2F28A
:105A50000005284600F04AFA44F6E840C2F2000089
:105A600000F044FA44F61C50C2F2000000F03EFA86
:105A700044F60850C2F2000000F038FA40F6D84070
:105A8000C2F20000046040F6E040C2F2000005608F
:105A9000B0BD000080B544F60052C2F2000200BF63
:105AA000114612688242FBD3D1F804C001EB0C030B
:105AB000834203D14068604448600846D0F804C07F
:105AC00000EB0C03934201D013460BE040F6DC439D
:105AD000C2F200031B689A4204D0D2E9003E0EEBEA
