:020000040800F2
:10000000D0520020C101000859350008252E0008F3
:100010005535000841090008F540000800000000BF
:10002000000000000000000000000000513800083F
:100030000D0C000800000000E13700087D380008C2
:10004000DB010008DB010008DB010008DB01000820
:10005000DB010008DB010008DB010008DB01000810
:10006000DB010008DB010008DB010008DB01000800
:10007000DB010008DB010008DB010008DB010008F0
:10008000DB010008DB010008DB010008DB010008E0
:1000900045090008DB010008DB010008DB0100085E
:1000A000DB01000871390008DB010008DB010008F2
:1000B00081390008DB010008DB010008DB010008D2
:1000C000DB010008DB010008DB010008DB010008A0
:1000D000DB0100081D400008DB010008DB0100080F
:1000E000DB010008DB010008DB010008DB01000880
:1000F000DB010008DB010008DB010008DB01000870
:10010000DB010008DB010008DB010008DB0100085F
:10011000DB010008DB010008DB010008DB0100084F
:10012000DB010008450A0008550A0008DB01000849
:10013000DB010008DB010008DB010008DB0100082F
:1001400055090008DB010008DB010008DB0100089D
:10015000DB010008DB010008DB0100088D4000081E
:10016000DB010008DB010008DB010008DB010008FF
:10017000DB010008DB010008DB01000800000000D3
:10018000DB010008DB010008DB010008DB010008DF
:10019000DB010008DB010008DB010008DB010008CF
:1001A0000000000000000000DB010008DFF80CD0B8
:1001B00000F0B4FB0048004749490008D052002035
:1001C0000648804706480047FEE7FEE7FEE7FEE7F1
:1001D000FEE7FEE7FEE7FEE7FEE7FEE75D39000823
:1001E000AD0100082DE9F05F0546002092469B46D0
:1001F00088460646814640241BE02846414647463D
:10020000224600F036FA53465A46C01A914110D39E
:1002100011461846224600F01DFA2D1A67EB010818
:100220004F4622460120002100F014FA17EB000986
:100230004E41201EA4F10104DFDC484631462A4627
:100240004346BDE8F09F0000004870477474000802
:1002500040EA01039B0703D009E008C9121F08C048
:10026000042AFAD203E011F8013B00F8013B521EC8
:10027000F9D27047D2B201E000F8012B491EFBD23F
:1002800070470022F6E710B513460A4604461946A1
:10029000FFF7F0FF204610BD2DE9FE4F804681EAB2
:1002A0000300C00F0C46009021F0004123F00045F0
:1002B000B8EB0200A94105D24046214690461C46B3
:1002C0000B46024623F00040104347D0270DC7F3EA
:1002D0000A00C3F30A510290401A019040286BDAD9
:1002E000C3F3130040F4801B0098924620B1002312
:1002F000D2EB030A63EB0B0B01985946C0F14002A5
:10030000504600F0A7F906460D4650465946019A58
:1003100000F0BFF910EB08006141002487EA115298
:1003200084EAE7731A4340D0009A62B3019A012A23
:100330004FEA075215DC001B61EB02014FF000424F
:1003400002EA0752CDE90042001C41F58011324615
:100350002B4600F014FA03B0BDE8F08F404621466A
:10036000F9E7001B61EB0201001C41F58013001846
:100370005B412018A2F5001747EB030140EAD57056
:10038000B6196D4111E06D084FEA360645EAC075B1
:100390004FEA0752001B61EB0201001C41F580117E
:1003A00049084FEA30000019514132462B4603B04C
:1003B000BDE8F04F00F0D4B90098012240000023BE
:1003C000D0EB020263EBE073009821464FEAE07441
:1003D000B8EB000061EB0401E9E783F000435BE761
:1003E00081F0004158E72DE9FE4F81EA030404F053
:1003F000004421F0004100944FF0000B23F0004333
:1004000050EA01045ED052EA03045BD0C3F30A54FD
:10041000C1F30A552C44A4F2F3340194A0FB025416
:10042000C1F3130141F48011C3F3130343F48013A8
:1004300001FB024400FB034E840A970A44EA8154FC
:1004400047EA8357A4FB076802958D0A05FB0785D9
:100450004FEA932C04FB0C542705029D4FEA0658E3
:1004600047EA1637B5EB08056EEB070C870E920EC0
:1004700047EA811742EA8312A7FB0201B6EB0B01A0
:1004800064EB00042B0D43EA0C335E1844EB1C5064
:10049000DA465146E7FB0201C5F313044FEA0B337A
:1004A00043EA14534FEA0432019C43EA0603A4F1E1
:1004B0000C040294009CCDE900B400F060F903B094
:1004C000BDE8F08F00200146F9E72DE9F04D81EA03
:1004D000030404F0004B21F0004514464FF0000ADD
:1004E00023F0004150EA050220D054EA01021DD059
:1004F000C5F30A570246C5F31303C1F31300C1F352
:100500000A5640F4801543F48013A7EB0608101B2D
:10051000D64608F2FD3873EB050002D308F1010856
:1005200001E092185B41B8F1000F03DA00200146A8
:10053000BDE8F08D00204FF48011064684460EE0A1
:10054000171B73EB050705D3121B63EB050306436B
:100550004CEA010C49084FEA300092185B4150EA1E
:100560000107EDD152EA030012D082EA040083EAC7
:100570000501084305D0101BAB4106D20122002320
:1005800006E000224FF0004302E06FF0010253103A
:100590001AEB06004CEB085110EB0A0041EB0B0183
:1005A000BDE8F04D00F0DCB80EB5C10F80EAE07098
:1005B0000844CA07002140F233438DE80E000A4682
:1005C0000B4600F0DCF803B000BD00F0004230F054
:1005D00000400AD0C10D01F56071C0F3160042EA77
:1005E0000151C2084007114370470020014670477F
:1005F00001F0004330B421F0004150EA010206D07E
:100600000A0DA2F56072C1F31301002A02DC30BCAE
:1006100000207047440F44EAC104C100E01830BC18
:1006200000EBC25000F047B830B50B460146002041
:100630002022012409E021FA02F59D4205D303FAA4
:1006400002F5491B04FA02F52844151EA2F1010225
:10065000F1DC30BD202A04DB203A00FA02F1002050
:1006600070479140C2F1200320FA03F319439040F0
:100670007047202A04DB203A21FA02F0002170475B
:1006800021FA02F3D040C2F12002914008431946FA
:100690007047202A06DBCB17203A41FA02F043EAE2
:1006A000E07306E041FA02F3D040C2F1200291402B
:1006B0000843194670470029A8BF7047401C4900ED
:1006C00008BF20F00100704710B4B0FA80FC00FAB7
:1006D0000CF050EA010404BF10BC704749B1CCF1E2
:1006E000200421FA04F411FA0CF118BF012121436E
:1006F0000843A3EB0C01CB1D4FEA00614FEA102029
:1007000042BF002010BC704700EBC35010440029CA
:10071000A4BF10BC7047401C490008BF20F0010076
:1007200010BC704710B541000CD0C0F3C7519629DA
:1007300008DC7E2909DC06DB410204D000F0004021
:1007400040F07E5010BD002010BDC1F19604C4F1F0
:10075000200100FA01F1E040FFF7ADFFA04010BD1D
:1007600010B5141E73F1000408DA401C41F10001B9
:1007700092185B411A4301D120F0010010BD2DE910
:10078000F04D92469B4611B1B1FA81F202E0B0FA07
:1007900080F220329046FFF75DFF04460F4640EAA4
:1007A0000A0041EA0B0153465A46084313D011464A
:1007B00053EA010019D0C8F140025046FFF759FF33
:1007C00005460E46504659464246FFF743FF08434A
:1007D00005D0012004E020463946BDE8F08D002018
:1007E000054346EAE0762C4337430A986305E40A5A
:1007F000A0EB08000022FD0A44EA47540A3002D563
:1008000000200146E9E7010510196941DDE90845C5
:1008100000196941BDE8F04DA2E770B521F0004331
:1008200003430CD0C1F30A550024D5EB040564EB57
:100830000403D617AD1AB34102DB0020014670BD98
:10084000201841EB025170BD2DE9F04D00231A46EE
:100850001B1A8A4103DB00200146BDE8F08DC1F37D
:100860000A52C1F3130141F480154FF0000BD10778
:1008700002D100186D41521E0027044640F2FF11BC
:10088000384601EB620A3E468046024600204FF49D
:100890008011FFF7EEFEC2197141BB1846EB010053
:1008A000B4EB030C75EB000C04D3E41A65EB000504
:1008B00017460E46241908F101006D418046342880
:1008C000E3DDF91946EB0600091BA84103D24FF0FE
:1008D000FF32134601E0002213461BEB070046EBF4
:1008E0000A51BDE8F04DFFF73BBF000030B5041ED4
:1008F00071F1000404DB4FF00044404264EB01015D
:10090000141E73F1000405DB1C464FF000435242F5
:1009100063EB0403994208BF904230BD064C074D7B
:1009200006E0E06840F0010394E8070098471034BF
:10093000AC42F6D3FFF73EFC3C7700085C7700083A
:10094000FEE7000080B540F67820C2F2000000F01B
:10095000CBFA80BD80B540F6A020C2F2000000F0C6
:10096000C3FA80BD40F6F050C2F20000416902694E
:1009700001314161511C016190E80E1001310160AB
:10098000511C4160591C426A81600CF10101C16037
:10099000511C82694162511CC2698161511C026A09
:1009A000C161511C016270472DE9F04140F6F050E1
:1009B000C2F2000090E80C4000F10C0C322A4FF01B
:1009C000000740F618629CE8701188BF0127C2F248
:1009D0000002322B4FF00003177088BF01235370C1
:1009E0000023BEF1320F88BF012393700023322C05
:1009F00088BF0123D3700023322E88BF01231371D7
:100A00000023322D88BF012353710023B8F1640FF6
:100A100088BF012393710023BCF1640F88BF0123B9
:100A2000D371D0E908030021322B4FF0000388BFB7
:100A30000123537240F6B833984288BF01211172E6
:100A4000BDE8F08180B540F62830C2F2000000F029
:100A50002BFD80BD80B540F6C820C2F2000000F03A
:100A600023FD80BDD0F800C06FF00F024AF6AB2323
:100A700052FA8CF2CAF6AA230146A2FB03300009FF
:100A800005A31B5C40F2FF302CEA00005F2A88BF00
:100A90000430C1E916037047000610160006101650
:100AA0008269816AB2F5005F06D06AB9022912D064
:100AB000012914D0D1B90EE0032917D8DFE801F0DD
:100AC000020B020F0120704703293CBF0120704731
:100AD0001CBF00207047C06AC0F300607047C06A46
:100AE000A0F1C070B0FA80F0400970470020704754
:100AF00080B5D0F800C0D0F808E0DCF80000BEF106
:100B0000400F20F48020CCF800000846CCF80430D8
:100B100004BF10460A46CCF80800CCF80C2080BD73
:100B200070B540F6E456C2F20006307841F6000493
:100B30000138B0FA80F04509C4F2020420464FF4AF
:100B400080712A4600F0DEFE707880210138B0FA0C
:100B500080F042092046154300F0D4FEB0784021D1
:100B60000138B0FA80F042092046154300F0CAFE71
:100B7000F07820210138B0FA80F042092046154370
:100B800000F0C0FE307910210138B0FA80F042093F
:100B90002046154300F0B6FE707908210138B0FAFE
:100BA00080F042092046154300F0ACFEB0790421E4
:100BB0000138B0FA80F042092046154300F0A2FE49
:100BC000F07902210138B0FA80F04209204615433D
:100BD00000F098FE707A4FF40061013818BF0120D0
:100BE00020EA0502A4F5006000F08CFE70BD000054
:100BF00040F6E454C2F20004204603F0A5FCFFF7DF
:100C00008FFF012004F04CF9F6E700007047000068
:100C1000EFF3108072B600BFFEE7000090F82020CE
:100C2000013A012A04D8006800F11402002004E00F
:100C300000F1240201204FF4802113681943116050
:100C40007047000010B590F820E0D0F800C0AEF179
:100C5000010EBEF1010FDCF808E00DD81EF0E05FD8
:100C600010D0CEF3016EBEF1030F11D100F12401BB
:100C700001204FF4000233E000F1240101204FF481
:100C800080222DE000F1240101204FF4001227E022
:100C9000012000FA0EF01860886818B14B6840EA2D
:100CA000C30001E008684005D1E9033403430CEBBD
:100CB0000E10C0F88031C0F88441097D012905D1AA
:100CC00000F5C2710B6843F480730B605168C0F883
:100CD0008C11126800F5C071C0F888210020012233
:100CE0000B681A430A6010BDB0B590F82020013A95
:100CF000012A2FD846F20060C4F20000026842F0D8
:100D000001020260026822F47C520260D1F814E011
:100D1000CC694A6A0368012C43EA022202600EF0A1
:100D20001F024FF0010303FA02F2C3696FEA020CDB
:100D300023EA0203C36113D02CBBC36803EA0C038C
:100D4000C360CB688C8844EA034300EBCE04236481
:100D50000B4611E0416A41F4802141620120B0BD9F
:100D6000C3681343C3600B688C8844EA034300EBF9
:100D7000CE04236401F10C038C681B8843EA04430E
:100D800000EBCE04636443688D6943EA0204D1F842
:100D900010E0096A002D08BF03EA0C0444604369AF
:100DA000BEF1000F43EA020408BF03EA0C04012964
:100DB000446102D1C1691143C161016821F001019F
:100DC00001600020B0BD00007047000010B590F831
:100DD0002040013C012C0CD8D0F800C079B1DCF8DF
:100DE0001040A4070FD100F1240101204FF400129C
:100DF00070E000F1240101204FF480226AE0DCF869
:100E00000C40A4076AD0046804EB011CDCF8B04174
:100E10000CF5D87E14F004049460DCF8B04119BFDE
:100E2000E4085460640D1460DEF80040002904F00A
:100E30000204D460DCF8B44104F00F041461DCF85F
:100E4000B441C4F307249461DCF8B4414FEA14447C
:100E50005461DCF8B8211A70026802EB0112D2F872
:100E6000B8214FEA12225A70026802EB0112D2F83E
:100E7000B8214FEA12429A70026802EB0112D2F8CE
:100E8000B8214FEA1262DA70026802EB0112D2F85E
:100E9000BC211A71026802EB0112D2F8BC214FEAA0
:100EA00012225A71026802EB0112D2F8BC214FEAF9
:100EB00012429A71026802EB0112D2F8BC214FEA89
:100EC0001262DA71006814BF00F1100100F10C0128
:100ED000002020220B681A430A6010BD00F1240193
:100EE00001204FF40012F5E72DE9F04F81B00446E0
:100EF00000684669D0F804908768D0F80CB0D0F844
:100F000010A0D0F81880F10703D1002530071CD4B9
:100F100023E0F90710D00121BA07816009D47807CE
:100F200000F1AA80380700F1B080204600F06EFA88
:100F300002E0204600F06CFA0025F80500F18480FC
:100F4000F80300F1AA80300707D51BF0100004D089
:100F5000206845F400751021C160700708D51BF0AA
:100F6000080005D020680821C160204600F0E4F99F
:100F7000B00706D52068C068800702D0204600F080
:100F8000DDF9700607D51AF0100004D0206845F48A
:100F9000806510210161B00608D51AF0080005D05F
:100FA000206808210161204600F0FCF9F00606D512
:100FB00020680069800702D0204600F0F5F9B003F0
:100FC00008D519F0100005D0206810214160204696
:100FD00000F0ECF9F00308D519F0080005D02068FE
:100FE00008214160204600F01DFA300440F18F8056
:100FF0005FEA497040F1888006F4807008EA1020AA
:1010000028435FEA8871014648BF41F00201B205FA
:1010100058BF01465FEA48700D4648BF45F00405D9
:10102000700558BF0D4630056ED518F070006BD0B6
:1010300010380009052862D8DFE800F0035356593C
:101040005C5F45F008055AE020684FF48071BA05EE
:1010500081600AD4780512D4380519D4204600F0EE
:10106000D9F9F8037FF56FAF17E0204600F0D4F907
:10107000F8037FF568AF10E04FF400655DE705F514
:101080000055F8037FF55FAF07E04FF4805554E754
:1010900005F58045F8037FF556AF20684FF48031A1
:1010A000BA0381600AD478030FD4380313D42046DE
:1010B00000F0B4F930073FF548AF4EE7204600F0A6
:1010C000AFF930073FF541AF47E705F50045300779
:1010D0003FF53BAF41E705F5803530073FF535AFCC
:1010E0003BE745F010050AE045F0200507E045F034
:1010F000400504E045F0800501E045F48075206876
:10110000816921F0700181612068042141602DB165
:10111000606A284360622046FFF756FE01B0BDE8D2
:10112000F08F0000B0B5C8B1044690F8200010B9A7
:10113000204600F071F82068016841F0010101606B
:1011400000F0E6FB054600BF20684168C90707D1EB
:1011500000F0DEFB401B0B28F6D312E00120B0BDEF
:10116000016821F00201016000F0D2FB054600BFDA
:101170002068416889070DD500F0CAFB401B0B2889
:10118000F6D3606A052140F400306062012084F8E3
:101190002010B0BD217E0268012922F0800208BF24
:1011A00080320260617E0268012922F0400208BF9D
:1011B00040320260A17E0268012922F0200208BFAD
:1011C00020320260E17E0268012922F0100218BF7D
:1011D00010320260217F0268012922F0080208BF54
:1011E00008320260617F0268012922F0040208BF10
:1011F00004320260D4E901C2D4E9033561691A43BB
:101200002A431143ACF101021143C16100200121C5
:10121000606284F82010B0BD10B586B0006846F654
:101220000002C4F2000200219042CDE90411CDE990
:101230000211019134D046F20041C4F2000188420B
:1012400078D140F23C01C2F200010A6843F6400046
:10125000C4F20200531C0B6052B9002100910168D6
:1012600041F000710160016801F000710091009986
:101270000021009150F8101C142441F0080140F89E
:10128000101C50F8100C00F008000090009803208B
:10129000019040F20040C4F2020000F5006036E028
:1012A00043F64000C4F202000091016841F0806101
:1012B0000160016801F080610091009940F23C01F9
:1012C000C2F200010A68531C0B6052B90021009160
:1012D000016841F000710160016801F00071009146
:1012E00000990021009150F8101C402441F00201A7
:1012F00040F8101C50F8100C00F00200009000980C
:101300004FF44050019040F20040C4F2020002212C
:10131000029100210391032104910921059101A962
:1013200000F022FA20460521002200F09BFB204617
:1013300000F094FB06B010BD7047000010B58AB0F5
:1013400003AA01AB00210446FFF740FD0398A0F279
:101350000121052907D8DFE801F0030D1013161944
:1013600003F0FEF817E0502813D0512818D103F0ED
:10137000DDFD10E003F0FCF80DE003F0DDFA0AE01B
:1013800002F0F4FE07E004F06BFF04E003F0D6FD8A
:1013900001E004F05DFF039801AA214603F016FC6A
:1013A0000AB010BD70470000704700007047000091
:1013B000B0B5044690F8200001281DD1022084F821
:1013C00020002068016821F00101016000F0A0FA0E
:1013D000054600BF20684068C00713D000F098FAA7
:1013E000401B0B28F6D3606A40F400306062052091
:1013F00084F820000120B0BD606A40F400206062E3
:101400000120B0BD00206062B0BD00007047000048
:1014100070470000704700007047000070470000F0
:10142000704700007047000070B5866D044600F0FC
:101430006FFA94F83510022925D105462068216CF1
:10144000026822F016020260426922F080024261C4
:1014500009B9A16C19B1016821F0080101600168A6
:1014600021F00101016000BF20680068C0070ED0B4
:1014700000F04EFA401B0628F6D3202060650320BA
:1014800084F835000CE080206065012008E0E06D04
:101490003F2101FA00F0B060012084F835000020FF
:1014A000002184F8341070BDF0B581B004460020EE
:1014B000009040F22000C2F200000268D4E91660F9
:1014C00048F2B51337680821C1F64E3381403942DE
:1014D000A2FB03250CD0226813685B0708D51368AC
:1014E00023F004031360B160616D41F00101616597
:1014F00001218140394208D022685269120604D580
:10150000B160616D41F002016165042181403942A1
:1015100008D022681268920704D5B160616D41F06D
:101520000401616510218140394215D020680268AC
:10153000120711D5B16002680168520306D4C905CB
:1015400006D4016821F00801016001E0080342D4DB
:10155000216C09B120468847E16D202000FA01F294
:101560003A4244D020680368DB0640D5B26094F864
:1015700035300268052B1ED122F016020260426946
:1015800022F080024261226C0AB9A26C1AB1026890
:1015900022F0080202603F208840B060012084F8F9
:1015A0003500216D0020002984F8340040D0204609
:1015B000884701B0F0BD0168520310D4C90512D4A8
:1015C000016821F010010160012084F8350000203D
:1015D00084F8340007E0A16C0029BBD1BCE7080304
:1015E00001D4616C00E0E16B09B120468847606D71
:1015F000F0B1606DC00717D0052084F83500206871
:10160000A90A026822F00102026000BF009A0132BA
:101610008A42009202D80268D207F7D1012084F8EA
:101620003500002084F83400E16C09B12046884779
:1016300001B0F0BD2DE9F041044600F069F9C4B1F4
:101640000546022084F835000020216884F8340023
:10165000086820F00100086026683068C0070BD0D9
:1016600000F056F9401B0528F6D90321202203205B
:1016700042E00120BDE8F081306848F23F01CFF23E
:101680001001251D00EA010C2ECDD4E9050E41EA1A
:101690000C01114319432943D4E90778084340EA70
:1016A0000E01606A3943042841EA080103D1D4E9F4
:1016B0000B231143194331607169042821F007019C
:1016C00041EA00050CD1D4E90A1045EA010538B118
:1016D0002046FFF7E5F918B10121402201200BE077
:1016E00020467561FFF7BEF9E16D3F2202FA01F174
:1016F0008160002201210020626584F83510BDE878
:10170000F0810000B0B5044690F83400012828D0DC
:10171000012084F83400A56D94F8350001281DD10E
:10172000022084F83500002060652046FFF7E0F9CC
:10173000E26D3F23206803FA02F2216CAA6002687E
:1017400042F01602026019B1016841F0080101601F
:10175000016841F0010101600020B0BD002084F863
:1017600034000220B0BD00002DE9F04F83B000F13D
:101770003E4202F1FF724FEAB22242F2004701926A
:10178000C4F202070A224FF0010E00254FF0000AB2
:101790004FF00008B84208BF092200920AE000BFDB
:1017A00008F101080AF1040AB8F1100F05F1020569
:1017B00000F0A4800C680EFA08FB14EA0B09EFD0C5
:1017C0004C6804F0030CACF1010EBEF1010F11D80E
:1017D0000322876802FA05F6CA68B743AA403A436B
:1017E00082604268C4F3001722EA0B0207FA08F786
:1017F0003A434260BCF1030F1CD0C26803238E68D9
:1018000003FA05F7BA4306FA05F73A43BCF1020FAB
:10181000C2600FD16FF0030202EA580202440AF0DC
:101820001C060F23176A03FA06F40B69A743B3409B
:101830003B431362026803234F68AB409A4307F0AF
:101840000303AB401A4317F4403F4FF0010E026010
:10185000A6D0002243F644030292C4F202031A689F
:1018600043F6004442F480421A601A68C4F201044C
:1018700002F480420292029A28F003024FF6084BCB
:101880002244CFF6FF7B52F80B300AF00C070F26EC
:10189000BE4023EA060C019B009E092B38BF1E4662
:1018A00006FA07F747EA0C0342F80B30A2684B68C8
:1018B00042EA090743F60C4CDE0258BF22EA090748
:1018C000A760C4F2010CDCF800209E0242EA09077E
:1018D00058BF22EA0907CCF8007062689E0342EA0A
:1018E000090758BF22EA090767602268DB0342EA5A
:1018F000090358BF22EA0903236051E703B0BDE89A
:10190000F08F0000002A08BF0904816170470000C1
:1019100044F6BC30C2F200000068704740F22A0072
:1019200044F6BC31C2F20000C2F2000100780A683D
:10193000104408607047000080B543F60040C4F2D0
:101940000200016841F400710160016841F48061A6
:101950000160016841F480710160032000F092F899
:101960000F2000F005F800F055F8002080BD0000C1
:10197000B0B586B0002543F644010195C4F20201DA
:101980000A68044642F001020A60096801A801F0F1
:10199000010101910199694600F066F900F09CF996
:1019A0004DF683614000C4F21B31A0FB01014FF0F2
:1019B000FF3000EB914140F6E0300022C2F200001F
:1019C000C4F2010240F2E733C0E90021C0E902534A
:1019D0000561856100F07AFC0546C0B940F6E0304B
:1019E000C2F2000000F0EEFC054680B9192000F0BC
:1019F00035F80F2C0AD819202146002200F032F8C1
:101A000040F22C00C2F20000046000E001252846EC
:101A100006B0B0BD80B582B0002043F64001019011
:101A2000C4F202014A6842F480424A604A6802F401
:101A300080420192019A00900868002240F0805094
:101A4000086008680F2100F08050009000986FF047
:101A5000010000F007F802B080BD000080B502F080
:101A60004BFB80BD70B514460D46064602F054FB94
:101A70002946224601F072FD0146304602F054FB31
:101A800070BD000080B502F061FB80BD70B582B012
:101A90000020019043F64000C4F202000168402695
:101AA00041F0805101600068C4F20E2600F08050C1
:101AB0000190019847F204050120C4F2000530604E
:101AC000FFF726FF044600BF2868C00306D4FFF7CF
:101AD0001FFF001BB0F57A7FF6D90EE00120706081
:101AE000FFF716FF044600BF2868800308D4FFF7FD
:101AF0000FFF001BB0F57A7FF6D9032002B070BD4E
:101B0000002002B070BD00002DE9F041002800F077
:101B10008B8043F60808C4F202080446D8F8F8039C
:101B20000D4600F00F00884207D288F8F853D8F825
:101B3000F80300F00F00A84276D12068810717D57E
:101B4000410705D5D8F8001041F4E051C8F800105D
:101B5000010705D5D8F8001041F46041C8F800101D
:101B6000D8F80010A26821F0F0011143C8F8001065
:101B7000C0073FD1D8F8F80300F00F00A84207D9FA
:101B800088F8F853D8F8F80300F00F00A8424BD1BA
:101B90002068410707D5D8F80010E26821F4E05129
:101BA0001143C8F80010000708D5D8F800002169D3
:101BB00020F4604040EAC100C8F8000000F09EF840
:101BC000D8F8001047F2F042C1F30311C0F600024A
:101BD000515C40F2200220FA01F140F22C00C2F2E6
:101BE00000000068C2F200021160FFF7C1FE002091
:101BF000BDE8F0816068811E022907D258F8081CF0
:101C000089015CBF0120BDE8F08110E0012807D107
:101C100058F8081C89035CBF0120BDE8F08106E08C
:101C200058F8081C890702D40120BDE8F081D8F8D3
:101C3000001021F003010843C8F80000FFF768FE18
:101C4000064641F2883700BFD8F80000616800F00E
:101C50000C00B0EB810F8DD0FFF75AFE801BB8420D
:101C6000F2D90320BDE8F0810F22026043F608029A
:101C7000C4F20202136803F003034360136803F025
:101C8000F0038360136803F4E053C360D2F800C02C
:101C90004FF4E05303EADC030361D2F8F80300F0E9
:101CA0000F0008607047000040F22000C2F2000000
:101CB0000068704780B5FFF7F7FF43F60801C4F2EC
:101CC0000201096847F20052C1F38221C0F6000206
:101CD000515CC84080BD000080B5FFF7E5FF43F6CA
:101CE0000801C4F20201096847F20052C1F342310F
:101CF000C0F60002515CC84080BD000010B543F63C
:101D00000404C4F20204606800F00C0008280AD041
:101D1000042819BF42F20040C0F2F40041F600303E
:101D2000C0F2B70010BD206821682368490241F65F
:101D30000031C0F2B70100F03F02C3F388105CBF6E
:101D400042F20041C0F2F401A1FB00010023FEF7C2
:101D500049FA21680222C1F3014102EB4101B0FBC3
:101D6000F1F010BD2DE9F04182B0002800F0A28012
:101D70000446007843F60006C007C4F2020643D0CA
:101D8000B06800F00C00042805D1306880033BD512
:101D90006068C8BB8EE0B06800F00C00082802D173
:101DA00070684002F1D46568B5F5A02F0AD0B5F58A
:101DB000803F0BD0306820F480303060306820F4F1
:101DC000802006E0306840F480203060306840F4C5
:101DD00080303060FFF79CFD002D054611D000BF1C
:101DE0003068800310D4FFF793FD401B6428F7D9B7
:101DF00022E100BFFFF78CFD401B64284FF0030079
:101E000055D830688003F5D4207880071AD5B0689B
:101E100010F00C0F09D0B06800F00C00082840F05A
:101E20008A807068400200F186803068800702D5A1
:101E3000E06801283ED13068216920F0F80040EACE
:101E4000C10030602078000738D4207840074CD497
:101E5000A5695DB3B06800F00C00082840F09E80D2
:101E6000012D27D07068E16900F480028A4221D1F7
:101E7000216A00F03F028A421CD147F6C071626AB3
:101E80000140B1EB821F15D1A26A0023CFF6FF7388
:101E900003EBC23200F440316FF30F02914209D1DB
:101EA000E16A00F07060B0EB016F03D1002002B076
:101EB000BDE8F081012002B0BDE8F0816069002832
:101EC00040F20000C4F2472057D00121C0F8801E24
:101ED000FFF71EFD054600BF706F8007B5D4FFF702
:101EE00017FD401B0228F7D9A6E0306C10F080588F
:101EF0000AD100200190306C40F080503064306C8A
:101F000000F080500190019847F20007C4F20007EA
:101F10003868C00524D4386840F480703860FFF712
:101F2000F7FC05463868C0051AD4FFF7F1FC401BE2
:101F30000228F7D980E0E068002851D00020C4F2E0
:101F4000472001210160FFF7E3FC05463068800768
:101F50003FF571AFFFF7DCFC401B0228F6D96BE0C0
:101F6000A568052D50D0012D52D0306F20F0010012
:101F70003067306F20F004004DE00021C0F8801E73
:101F8000FFF7C6FC054600BF706F80077FF55DAFA9
:101F9000FFF7BEFC401B0228F6D94DE00027C4F233
:101FA000472700203866FFF7B3FC022D05460BD10A
:101FB0003068800158D5FFF7ABFC401B02284FF07A
:101FC0000300F5D973E700BF306880017FF56EAF7D
:101FD000FFF79EFC401B02284FF00300F4D966E790
:101FE0000020C4F2472000210160FFF791FC054664
:101FF000306880077FF526AFFFF78AFC401B022878
:102000004FF00300F4D952E7306F40F0040030671E
:10201000306F40F001003067FFF77AFC002D054675
:1020200041F2883714D000BF306F800713D4FFF718
:102030006FFC401BB842F7D9032002B0BDE8F08125
:10204000FFF766FC401BB8424FF003003FF62FAF8E
:10205000306F8007F4D4B8F1000F7FF4F9AE306C24
:1020600020F080503064F3E604F11C052FCD0843C6
:102070000021CFF6FF7140EA821001EBC3316FF30C
:102080000F0140EA05600843706001203866FFF7E1
:102090003FFC0446306880013FF508AFFFF738FC8D
:1020A000001B02284FF00300F4D900E770B538B1E7
:1020B0000446406A30B10020206104F1140007E0BA
:1020C000012070BD6068B0F5827F03D004F11C0070
:1020D000002101600026A66294F8510020B9204634
:1020E00084F8506000F03CF8022084F8510094E835
:1020F0000F0001F48271056802F4044225F04005E6
:102100000560114403F400622369114403F00202E4
:102110006369114403F00102A369E569114403F402
:102120000072114405F03802256A114405F080025E
:10213000A56A114305F4005211430160626A04214B
:1021400001EA134102F0100211444160C16921F417
:102150000061C1610120666584F85100304670BDA0
:102160002DE9F04387B043F200050068C4F2010591
:102170000026A8420696CDE904660396029602D090
:1021800007B0BDE8F08343F630000196C4F20200C8
:10219000416902AC41F48051416141694FF002084C
:1021A00001F4805101910199019601684FF00309F2
:1021B00041F0020101600168052701F0020101916F
:1021C00001990196016841F0010101600068214612
:1021D00000F00100019001981820029005F554408C
:1021E000CDE90386CDF814900697FFF7BDFA80205D
:1021F000CDE9020805F550402146CDE9046906976E
:10220000FFF7B2FA07B0BDE8F083000070470000A6
:102210007047000010B590F83C20012A4FF00202F0
:1022200052D0012380F83C3080F83D200268D2F87B
:1022300004E0D2F808C00C682EF07003234341F28A
:10224000FF74C4F20004A24253600DDC40F2FF733D
:10225000C4F200039A4215DCB2F1804F29D040F25B
:102260000043C4F2000322E040F2FF33C4F2010352
:102270009A4212DC41F60003C4F200039A4218D0DD
:10228000002312E040F60003C4F200039A4210D08B
:1022900040F60043C4F2000309E044F20003C4F234
:1022A00001039A4205D040F20043C4F201039A426E
:1022B00004D149682CF08003194391600121002268
:1022C00080F83D1080F83C20104610BD002804BF67
:1022D0000120704710B5044690F83D0028B9002051
:1022E00084F83C00204600F01FF8022084F83D00EE
:1022F0002068211D01F04EFB012084F8460084F87F
:102300003E0084F83F0084F8400084F8410084F8DF
:10231000420084F8430084F8440084F8450084F8BF
:102320003D00002010BD000080B584B0006840F67C
:102330000041C4F20001884221D040F60001C4F2FD
:10234000000188422CD0B0F1804F27D100200390AB
:1023500043F64000C4F202000168002241F001018E
:1023600001600068052100F00100039003981C2023
:10237000FFF778FB1C20FFF771FB04B080BD002045
:10238000019043F64000C4F20200016841F00801E8
:102390000160006800F008000190019804B080BD61
:1023A0000020029043F64000C4F20200016841F0B0
:1023B00004010160006800F004000290029804B07B
:1023C00080BD000090F83D1001291CBF012070471E
:1023D000022180F83D10006841F2FF72C168C4F22A
:1023E0000002904241F00101C1600DDC40F2FF713A
:1023F000C4F20001884215DCB0F1804F29D040F2D0
:102400000041C4F2000122E040F2FF31C4F20101B8
:10241000884212DC41F60001C4F20001884218D063
:10242000002112E040F60001C4F20001884210D001
:1024300040F60041C4F2000109E044F20001C4F298
:102440000101884205D040F20041C4F201018842F6
:1024500006D1816801F00701062904BF00207047FA
:10246000016841F0010101600020704710B5044689
:1024700090F83C0001284FF0020008BF10BD012277
:1024800084F83C2084F83D0020684FF6777382681A
:102490009A4382600A684F2A0FDC1F2A22DD202A15
:1024A00023D0302A21D0402A4DD14B68CA68194622
:1024B00001F0ECFB206840213BE06F2A17DDB2F50C
:1024C000005F20D0B2F5805F2AD0702A3BD1D1E9DD
:1024D000012CCB68614601F001FB2068816841F066
:1024E00077011AE00AB1102A2DD1114621E0502AB5
:1024F00018D0602A27D14B68CA68194601F0D8FB6A
:102500002068602115E0D1E9012CCB68614601F01B
:10251000E5FA2068816841F48041816000200BE089
:10252000002009E04B68CA68194601F0AFFB20683B
:10253000502101F0DFFA0020012184F83D10002134
:1025400084F83C1010BD0120F6E700007047000041
:1025500010B5044600680169890744BFC1685FEA95
:10256000817138D420680169490744BFC1685FEAB6
:1025700041713CD420680169090744BFC1685FEA22
:10258000017141D420680169C90644BFC1685FEA8E
:10259000C16145D420680169C9071CBFC1685FEAF1
:1025A000C1714AD120680169090644BFC1685FEA68
:1025B000016149D420680169490644BFC1685FEAE6
:1025C000416148D420680169890644BFC1685FEA57
:1025D000816147D410BD6FF00201016101212177B3
:1025E0008069800745D02046FFF7B0FF47E06FF0D5
:1025F0000401016102212177806910F4407F41D0FC
:102600002046FFF7A3FF43E06FF0080101610421BA
:102610002177C06980073ED02046FFF797FF40E052
:102620006FF01001016108212177C06910F4407F2B
:102630003AD02046FFF78AFF3CE06FF001010161CC
:10264000204600F0F7F9ADE76FF080010161204608
:10265000FFF7DCFDAEE76FF040010161204600F0BE
:10266000F3F9AFE76FF0200101612046FFF7D0FDDD
:1026700010BD204600F08AF8204600F005F9002041
:1026800020776FE7204600F081F8204600F0FCF844
:10269000002020776EE7204600F078F8204600F012
:1026A000F3F8002020776DE7204600F06FF8204611
:1026B00000F0EAF8002020776CE7000070B586B0E3
:1026C000006840F60041C4F2000100248842CDE9D0
:1026D0000444CDE90244019420D040F60001C4F244
:1026E000000188424FD1002043F630010090C4F22F
:1026F00002010A6842F008020A60096801F0080154
:10270000009100994FF4004101910221CDE902109E
:10271000049040F60040C4F202002FE043F630007F
:102720000094C4F20200016840F6004641F4807152
:1027300001600168C4F2020601F480710091009901
:1027400000940168022541F080010160006801A940
:1027500000F08000009000980120019006F5A05044
:10276000CDE90254CDE90445FEF7FEFF4FF4E050F9
:10277000CDE9010506F58050CDE90344022105911C
:1027800001A9FEF7F1FF06B070BD00007047000020
:10279000B0B5044690F83C00012804BF0220B0BD4B
:1027A0000D464FEAB2010120032984F83C0037D8D6
:1027B000DFE801F0020A12222068294601F0A2F99E
:1027C000206850F8181F0EE02068294601F0CCF967
:1027D000206850F8181F16E02068294601F0FAF921
:1027E000206850F81C1F41F008010160016821F0C9
:1027F0000401016029690FE02068294601F01EFAF2
:10280000206850F81C1F41F400610160016821F448
:10281000806101602969090202681143016000209A
:10282000002184F83C10B0BD002804BF012070478F
:1028300010B5044690F83D0028B9002084F83C000B
:10284000204600F01FF8022084F83D002068211D7A
:1028500001F0A0F8012084F8460084F83E0084F8D6
:102860003F0084F8400084F8410084F8420084F876
:10287000430084F8440084F8450084F83D000020BB
:1028800010BD0000704700007047000010B50446FE
:1028900041B1082909D0042914BF04F1410004F111
:1028A0003F0004E004F13E0001E004F14000007844
:1028B00001281CBF012010BD022041B1082909D008
:1028C000042914BF84F8410084F83F0004E084F830
:1028D0003E0001E084F840002068012201F0ECF89D
:1028E000206841F2FF71C4F2000188420FDC40F21F
:1028F000FF71C4F20001884217DCB0F1804F49D06B
:1029000040F20041C4F20001884243D049E040F265
:10291000FF32C4F20102904214DC41F60003C4F21B
:102920000003984236D0002314E040F60001C4F2C0
:10293000000188422ED040F60041C4F200018842D6
:1029400028D02EE044F20003C4F20103984221D0C3
:1029500040F20043C4F20103984222D1436C884202
:1029600043F400434364C2DD904207DC41F60001BA
:10297000C4F2000188420DD0002107E044F20001BA
:10298000C4F20101884205D040F20041C4F20101C5
:10299000884206D1816801F00701062904BF0020A2
:1029A00010BD016841F001010160002010BD000070
:1029B000B0B50446006800220D4601F07DF820689D
:1029C00040F2004240F48061C4F2010291420DD114
:1029D000016A41F21112114208D1016A40F24442E7
:1029E000114203D1416C21F400414164016A41F27A
:1029F0001112114208D1016A40F24442114203D13E
:102A0000016821F0010101600120082D09D0042D89
:102A10000BD0002D14BF84F8410084F83E00002044
:102A2000B0BD84F840000020B0BD84F83F00002015
:102A3000B0BD000080B500680021C4F201018842E9
:102A400008BFFEF76BFF80BD7047000070470000B5
:102A500010B504460068406994F83D10212915D14D
:102A600010F0800012D000BF206850E8050F2168E8
:102A700020F0800041E80502002AF5D1606B0028B3
:102A800018BFFEF7D1FC204601F0C0F9206840696C
:102A900094F83E10222915D110F0400012D000BF4A
:102AA000206850E8050F216820F0400041E8050249
:102AB000002AF5D1A06B002818BFFEF7B5FC204610
:102AC00001F07CF9002010BD70470000002804BF11
:102AD0000120704710B5044690F83D0028B9002049
:102AE00084F83C00204600F021F8242084F83D00C2
:102AF0002068C16821F40051C160204601F094F9BA
:102B00002068016921F490410161416921F02A01A5
:102B10004161C16841F40051C1600020202120645E
:102B200084F83D1084F83E1010BD000070B586B0EA
:102B30000446216844F60002C4F2000200209142DB
:102B4000CDE90400CDE90200019061D041F20040DE
:102B5000C4F20100814200F0888041F20000C4F21A
:102B60000100814240F0D580002643F630000096F7
:102B7000C4F20200416941F010014161416901F074
:102B80001001009100990096016841F00201016076
:102B9000006801A900F0020000900098C020019098
:102BA0000220CDE90206032004900720059040F2A0
:102BB0000040C4F20200FEF7D7FD46F22840C4F2FE
:102BC000020040F6C8251830C2F200054FF000613F
:102BD00085E843004FF440304FF48062C5E90806B1
:102BE0002846C5E90362C5E90566EE61FEF722FDE8
:102BF000002818BFFEF70CF8252005210022A56348
:102C0000AC63FEF72FFF2520FEF728FF06B070BD4E
:102C100043F630010090C4F202010A6942F48022B6
:102C20000A610A6902F480220092009A00900A6800
:102C300042F004020A60096801F004010091009961
:102C40004FF4406101910221CDE90210032004906C
:102C50000720059040F20040C4F2020000F58060B9
:102C600001A9FEF781FD06B070BD002643F63000D5
:102C70000096C4F20200416941F0200141614169BE
:102C800001F02001009100990096016841F0400197
:102C90000160006801A900F04000009000984FF426
:102CA000844001900220CDE9020603200490082010
:102CB000059040F20040C4F2020000F5A050FEF77B
:102CC00053FD40F6283546F22840C2F20005C4F212
:102CD00002004FF0206185E843004FF400304FF4CC
:102CE0008062C5E908062846C5E90362C5E90566AC
:102CF000EE61FEF79FFC002818BFFDF789FF472013
:102D000005210022A563AC63FEF7ACFE4720FEF769
:102D1000A5FE06B070BD000010B590F83E30202B27
:102D20000BD100294FF0010418BF002A01D1204621
:102D300010BD90F83C30012B01D1022010BD0123C1
:102D4000002480F83C30046301F0DCF8204610BD1C
:102D500070470000704700002DE9F04381B0044641
:102D600090F83D0020280BD10E4600294FF00100BD
:102D700055D01746002A52D094F83C00012803D1C0
:102D8000022001B0BDE8F083012084F83C004FF040
:102D9000000921201D46C4F8409084F83D00FEF74C
:102DA000B7FDA784E784A1680746B1F5805F07D126
:102DB000206900281CBF30464E46B046064601E05A
:102DC0004FF0000884F83C9007E000BF16F8010BB4
:102DD00021684860E08C0138E084E08C80B12046B6
:102DE00080213A462B4601F0DBF880B9002EEDD168
:102DF00038F8020B21686FF35F2048600026E9E78E
:102E0000204640213A462B4601F0CAF818B103206B
:102E100001B0BDE8F083202084F83D00002001B01F
:102E2000BDE8F083FEE7000080B540F6782046F26A
:102E30000041C2F20000C4F200010522002380E834
:102E40000E0000F10C014FF4802C4FF4001E81E8BD
:102E5000085083618383FEF765F9002818BFFDF7EA
:102E6000D7FE80BD80B540F6A02046F60001C2F234
:102E70000000C4F200010522002380E80E0000F1EA
:102E80000C014FF4802C4FF4001E81E80850836140
:102E90008383FEF747F9002818BFFDF7B9FE80BD10
:102EA00080B582B00020019043F63000C4F20200E9
:102EB0000168002241F4800101600068052100F4EE
:102EC0008000019001983920FEF7CCFD3920FEF7F3
:102ED000C5FD3A2005210022FEF7C4FD3A20FEF789
:102EE000BDFD02B080BD000010B59CB047F2B840F7
:102EF000C0F6000090E80E50D0E905401591CDE9EC
:102F00001A4015A8002116921793CDF860C0CDF88D
:102F100064E001F0D3FF40F64C21C2F200010860EA
:102F200047F28040C0F6000090E81E5080690E9184
:102F300014900EA800210F9210931194CDF848C060
:102F4000CDF84CE001F0BAFF40F6D451C2F20001D6
:102F5000086047F29C40C0F6000090E81E5080696F
:102F600007910D9007A80021089209930A94CDF8C3
:102F70002CC0CDF830E001F0A1FF40F64821C2F2AC
:102F80000001086047F2D440C0F6000090E81E50EF
:102F900080698DE81E5006906846002101F08EFF82
:102FA00040F62461C2F2000108601CB010BD0000B0
:102FB0002DE9F04F87B0002743F630000697CDE9A2
:102FC0000477CDE902770197C4F20200016800247A
:102FD00041F0100101600168C4F2020401F0100127
:102FE000019101990197016804F5806641F00201A1
:102FF00001600168002201F002010191019901972D
:10300000016841F040010160016801F04001019157
:1030100001990197016841F008010160016801F020
:103020000801019101990197016841F004010160D3
:10303000016801F00401019101990197016841F0D3
:1030400001010160016801F00101019101990197FD
:10305000016841F480710160016801F4807101919F
:1030600001990197016841F080010160016801F058
:103070008001019101990197016841F020010160EF
:1030800000684FF4C06100F02000019001983046C4
:10309000FEF738FC04F5C05A50464FF4FF71012288
:1030A0004FF0010BFEF72EFC204640210022FEF7D8
:1030B00029FC04F5805948464FF400610122FEF7CF
:1030C00021FC04F5A0504FF4804101220090FEF74E
:1030D00019FC4FF2FF7002AD02904FF00308484612
:1030E0002946CDE90387FEF73FFB4CF62710CDE9D3
:1030F0000208304629460497FEF736FB4BF601409E
:10310000CDE90208504629460497FEF72DFB47F605
:10311000FC70CDE9020804F5406029460497FEF7EB
:1031200023FB4FF2FF30CDE9020804F50060294689
:103130000497FEF719FB49F63F70CDE902082046D7
:1031400029460497FEF710FB4FF4C060CDE9020B4F
:1031500002200590304629460497FEF705FB40F60D
:10316000FE70CDE9020804F5005029460497FEF7E9
:10317000FBFA4EF2FC30CDE9020804F5E050294696
:103180000497FEF7F1FA009E4BF6FF70CDE90208B6
:10319000304629460497FEF7E7FA4FF4FF70CDE971
:1031A000020B50462946CDE9047BFEF7DDFA4020AC
:1031B000CDE9020B20462946CDE9047BFEF7D4FA7F
:1031C0004FF40060CDE9020B48462946CDE9047B67
:1031D000FEF7CAFA4FF48040CDE9020B304629468B
:1031E000CDE9047BFEF7C0FA07B0BDE8F08F000020
:1031F000B0B540F6883043F20001C2F20000C4F2DC
:1032000001014FF48272002380E80E0000F10C01EE
:103210004FF0020C4FF0010E4FF40074382581E896
:1032200008500A21C0E90645C0E90833C0E90A315F
:10323000FEF73CFF002818BFFDF7EAFCB0BD000018
:1032400080B586B040F628400021C2F200004FF061
:103250008042592340F2E73CCDE90411CDE9021147
:10326000CDE90011C0E90023C0E9021C01618161C0
:10327000FFF72CF8002818BFFDF7CAFC4FF4805068
:10328000029040F62840C2F2000002A9FFF7EEF8D3
:10329000002818BFFDF7BCFC0020CDE9000040F677
:1032A0002840C2F200006946FEF7B4FF002818BFAC
:1032B000FDF7AEFC06B080BD10B58EB040F6704094
:1032C00040F600020021C2F20000C4F2000240F207
:1032D000833340F2CF740D91CDE90B11CDE9091183
:1032E000CDE90711CDE90511CDE90311CDE90111B2
:1032F000C0E90023C0E9021401618161FEF7E6FF25
:10330000002818BFFDF784FC4FF480500A9040F667
:103310007040C2F200000AA9FFF7A8F8002818BF01
:10332000FDF776FC40F67040C2F20000FFF77CFA31
:10333000002818BFFDF76CFC40F670400024C2F274
:10334000000008A9CDE90844FEF764FF002818BF73
:10335000FDF75EFC602001909620CDE9020440F666
:103360007040C2F2000001A90C220594FFF710FA88
:10337000002818BFFDF74CFC40F67040C2F2000078
:10338000FFF79CF90EB010BD10B58EB040F6B840F6
:1033900040F600420021C2F20000C4F2000240F2F6
:1033A000833340F2CF740D91CDE90B11CDE90911B2
:1033B000CDE90711CDE90511CDE90311CDE90111E1
:1033C000C0E90023C0E9021401618161FEF77EFFBC
:1033D000002818BFFDF71CFC4FF480500A9040F6FF
:1033E000B840C2F200000AA9FFF740F8002818BF51
:1033F000FDF70EFC40F6B840C2F20000FFF714FAE9
:10340000002818BFFDF704FC40F6B8400024C2F2C3
:10341000000008A9CDE90844FEF7FCFE002818BF0B
:10342000FDF7F6FB602001909620CDE9020440F6FE
:10343000B840C2F2000001A900220594FFF7A8F9E4
:10344000002818BFFDF7E4FB40F6B840C2F20000C8
:1034500001A90422FFF79CF9002818BFFDF7D8FB4B
:1034600040F6B840C2F2000001A90822FFF790F927
:10347000002818BFFDF7CCFB40F6B840C2F20000B0
:1034800001A90C22FFF784F9002818BFFDF7C0FB43
:1034900040F6B840C2F20000FFF710F90EB010BDC0
:1034A00080B540F6005041F20001C2F20000C4F2C3
:1034B000010148F2A062C0F20102002380E80E0080
:1034C00000F10C014FF4806C4FF00C0E81E80850B5
:1034D000C0E90633FFF7FAFA002818BFFDF798FB9A
:1034E00080BD000080B540F6445044F60001C2F2B1
:1034F0000000C4F2000100234FF00C0C4FF4E13245
:1035000080E80E00C0E90333C0E905C3C361FFF7DB
:10351000DDFA002818BFFDF77BFB80BD80B540F6C3
:10352000885041F20041C2F20000C4F201010023C0
:103530004FF00C0C4FF4E13280E80E00C0E9033389
:10354000C0E905C3C361FFF7C1FA002818BFFDF742
:103550005FFB80BDFEE70000FEE7000000F0070013
:1035600080F00703042B28BF04234FF0FF3C0338EF
:103570000CFA03F338BF0020994381400CFA00F0A5
:1035800022EA00000843704710B52DED028B002899
:103590004FD0B0EE402A90ED010A90ED0C3A04466F
:1035A000B7EE008AC06B84ED0B3A23EE003A38EE9A
:1035B000400A20EE200AA063D4E9160133EE000A87
:1035C000B5EE401A84ED0C0A30EEC20AF1EE10FAA4
:1035D000C4E9170184ED0D2A84ED160A07DDB0EE6B
:1035E000600AF0EE420A00F091FE84ED160A20789F
:1035F000012823D0002840F0CC8094ED031AD4EDAC
:10360000040A94ED160A00F0C5FF94ED061A9FED2A
:10361000643A20EE012AB0EEC01AB4EE431AF1EE7D
:1036200010FA84ED160A84ED102A51DD0020606442
:1036300058E09FED5A0ABDEC028B10BD94ED031AC1
:10364000D4ED040A94ED160A00F0A4FF94ED171AC5
:1036500094ED065A94ED076A30EE412A25EE022ACF
:1036600020EE065A31EE011A94ED186A94ED087AAC
:1036700030EE411A94ED023A84ED102A84ED115A8D
:1036800031EE061A32EE052A94ED0E5A94ED054AF3
:10369000D4E9130184ED131A21EE071A84ED160AFA
:1036A00084ED121A32EE011A23EE052A38EE433A5F
:1036B000B0EEC00A21EE031AB4EE440A32EE011A4B
:1036C000F1EE10FAC4E9140184ED0F1A4ADB4BE065
:1036D00094ED073A94ED114A20EE033A34EE033AA2
:1036E00084ED113A94ED0A3A94ED176A94ED114A7B
:1036F00094ED085AD4E9130130EE466AB4EE434A19
:1037000026EE050AF1EE10FAC4E9140184ED120A5E
:1037100084ED136A02DD84ED113A08E0B1EE433A1C
:10372000B4EE434AF1EE10FAB8BF84ED113A94EDCD
:10373000115A94ED023A94ED0E6A94ED054A32EE78
:10374000052A30EE020A23EE062A38EE433A20EE2E
:10375000030AB4EE441A32EE000AF1EE10FA84EDD8
:103760000F0A01DA0020E06394ED090A94ED0F1AC4
:10377000B4EE401AF1EE10FA02DD84ED0F0A08E013
:10378000B1EE400AB4EE401AF1EE10FAB8BF84ED83
:103790000F0A94ED0F0ABDEC028B10BD0000000073
:1037A00000803B45002818BF002A00D17047031D48
:1037B00083EC040A80ED053A01701168816151685B
:1037C000C161916880ED092A01620021C163C0EDE9
:1037D0000A2A7047000000000000000000000000FE
:1037E000EFF30980BFF36F8F154B1A681EF0100FAF
:1037F00008BF20ED108A20E9F04F10602DE9090084
:103800004FF0500080F31188BFF34F8FBFF36F8FDD
:1038100002F0A2FA4FF0000080F31188BDE8090021
:1038200019680868B0E8F04F1EF0100F08BFB0EC40
:10383000108A80F30988BFF36F8F704700BF00BF05
:10384000300E00200000000000000000000000001A
:10385000074B19680868B0E8F04F80F30988BFF398
:103860006F8F4FF0000080F31188704700BF00BFDA
:10387000300E0020012001F013FBFBE780B54FF074
:10388000500080F31188BFF36F8FBFF34F8F02F0AA
:10389000A1FB30B14EF60450CEF200004FF0805143
:1038A0000160002080F3118880BD000010B592B047
:1038B00006AC20463021FCF7E4FC002043F6400132
:1038C0000590CDE90300CDE901000090C4F20201AA
:1038D0000A6842F080520A60096801F08051009144
:1038E0000099009047F20000C4F20000016841F422
:1038F0004041016000684FF4800100F440400090B6
:103900000098012006904FF480300D910621079019
:1039100002200E91B4210C90CDE90F1004201190DB
:103920002046FEF71FFAB0B9FEF7B0F898B90F209D
:10393000019002200290002003904FF4A0500490C8
:103940004FF48050059001A80521FEF7DDF800280E
:1039500004BF12B010BDFDF75BF900004EF68850B1
:10396000CEF20000016841F4700101607047000070
:1039700080B540F6E030C2F20000FEF7E9FD80BD00
:1039800080B502F031F840F62840C2F20000FEF7A0
:10399000DFFD80BD10B540F6FF3E0368C4F2000EA7
:1039A00040F2004C7045C4F2010C0FDCB0F1804FC6
:1039B00019D040F20042C4F20002904213D040F607
:1039C0000002C4F2000290420DD010E040F6004226
:1039D000C4F20002904206D0604504D00022C4F236
:1039E0000102904203D14A6823F07003134341F669
:1039F000FF72C4F2000290420DDC70451FDCB0F192
:103A0000804F41D040F20042C4F2000290423BD0CD
:103A100040F6000221E043F6FF72C4F20102904238
:103A200020DC42F20002C4F2000290422CD00022BC
:103A3000C4F20102904227D0604525D028E040F62C
:103A40000042C4F2000290421ED041F60002C4F2CD
:103A50000002904218D041F60042C4F200029042A7
:103A600012D015E044F20002C4F2010290420BD0E1
:103A700044F60002C4F20102904205D044F2004232
:103A8000C4F20102904203D1CA6823F44073134385
:103A900023F080024B69D1F800E08C681A43026081
:103AA000C46240F48062C0F828E0624504BF09693E
:103AB00001630121416110BD80B501F01F014FF08C
:103AC000010CD0F820E00CFA01F32EEA03030362A4
:103AD000036A02FA01F11943016280BDD0F808C0FF
:103AE00011432CF47F4C41EA032141EA0C0181602F
:103AF00070470000826822F07002114341F0070114
:103B000081607047B0B5026A40F2004522F00102C0
:103B10000262026AD0F804E0D0F818C08C6822F083
:103B2000020240F48063C4F20105AB4242EA04029F
:103B300005D1CC6822F00C0224F0040422430C6866
:103B4000AB4207D1D1E905532EF4407E45EA0E057C
:103B500045EA030E2CF073032343C0F804E08361AD
:103B6000496841630262B0BD70B5026A40F2004428
:103B700022F010020262026AD0F804E0D0F818C005
:103B80008D6822F0200240F48063C4F20104A34255
:103B900042EA051207D1CD686FF0400622F0C0025C
:103BA00006EA05152A430D68A34207D1D1E9056449
:103BB0002EF4406343EA860343EA840E2CF4E64382
:103BC00043EA0523C0F804E0836149688163026227
:103BD00070BD000070B5026A40F2004422F48072A9
:103BE0000262026AD0F804E0D0F81CC08D6822F4AA
:103BF000007240F48063C4F20104A34242EA052249
:103C000007D1CD6840F2FF462D0222F44062B54351
:103C10002A430D68A34207D1D1E905642EF440532D
:103C200043EA061343EA041E2CF073032B43C0F847
:103C300004E0C3614968C163026270BD70B5026A85
:103C400040F2004622F480520262026A4368D0F8D1
:103C50001CE00C68D1F808C040F48065C4F201068D
:103C6000B54204D14D6923F4804343EA85132EF411
:103C7000E64646EA04264360C66122F400524968DB
:103C800042EA0C320164026270BD0000D0F820C02C
:103C9000036A23F001030362836923F0F00343EA1C
:103CA00002122CF00A03194382610162704700007E
:103CB000036A23F0100303628369D0F820C023F461
:103CC000704343EA02322CF0A00343EA01118261FF
:103CD0000162704710B5846B2068406994F83D100C
:103CE000212907D110F0800004D00020E084204674
:103CF00000F08CF82068406994F83E10222907D122
:103D000010F0400004D00020E085204600F056F876
:103D1000206C40F0100020642046FEF7D5FE10BD58
:103D200080B50168806B0968C9052FD40021C18561
:103D3000016851E8031F026821F4807142E803130F
:103D4000002BF5D1016851E8051F026821F001013F
:103D500042E80513002BF5D1016851E8051F026800
:103D600021F0400142E80513002BF5D1202180F815
:103D70003E10016B012909D1016851E8031F026857
:103D800021F0100142E80313002BF5D1016B01294A
:103D900003D1818DFEF75AFE80BDFEF7D9FF80BDAD
:103DA00080B5806B016B012904D1818D4908FEF734
:103DB0004DFE80BDFEF7CEFF80BD0000016851E8DA
:103DC000031F026821F4907142E80313002BF5D120
:103DD000016851E8051F026821F0010142E805135E
:103DE000002BF5D1016B01290AD100BF016851E810
:103DF000031F026821F0100142E80313002BF5D1E4
:103E0000202180F83E10002101637047016851E8CD
:103E1000031F026821F0C00142E80313002BF5D113
:103E2000202180F83D10704710B504460068D4E9A1
:103E300002C22369016921F44051114301616269A1
:103E400043EA0C01E3691143C268194349F20C6368
:103E50009A431143C1604169A26921F4407141F262
:103E60000043114340F48062C4F201039A4241616D
:103E700002D1FDF731FF01E0FDF71CFFE169636846
:103E80001922B1F5004FA0FB02011CD15A00DB0F33
:103E9000FCF7A8F948F21F51C5F2EB11A0FB012372
:103EA0005A096FF0630302FB0300322303EBC000E7
:103EB000A0FB01014FF4F87000EA111000EB0210B2
:103EC000C1F342111AE09A009B0FFCF78BF948F2FC
:103ED0001F51C5F2EB11A0FB01235A096FF06303D8
:103EE00002FB0300322303EB0010A0FB0101F020D2
:103EF00000EA511000EB0210C1F34311226808439D
:103F0000906010BD70B582B01346002604468162F1
:103F100083850664222084F83E000A462168A06B4F
:103F200043F6215C43F6A15E43F6D545C0F6000C8E
:103F3000C0F6000EC0F600050431C0E90FCEC0E99E
:103F40001356FDF7DFFB0196206801680191406878
:103F500001900198206984F83C6048B1206850E8DD
:103F6000030F216840F4807041E80302002AF5D174
:103F7000206850E8050F216840F0010041E8050283
:103F8000002AF5D1206850E8050F216840F0400074
:103F900041E80502002AF5D1002002B070BD000002
:103FA0002DE9F0410446006800680840884202D1CB
:103FB0000020BDE8F0811D460E4690465F1C04E0DF
:103FC000206800683040B042F2D0002FF8D02DB108
:103FD000FDF79EFCA0EB0800A842F1D9206850E84C
:103FE000030F216820F4D07041E80302002AF5D1C4
:103FF000206850E8050F216820F0010041E8050223
:10400000002AF5D1202084F83D0084F83E000020ED
:1040100084F83C000320BDE8F081000080B582B048
:1040200040F60050C2F2000000680168C9062BD5B6
:10403000002101910168019140680190019840F6CA
:104040000050C2F20000FEF703FD40F6C820C2F2A5
:104050000000006840F684724068C2F20002C0F1BD
:104060002400C1B21229107003D101F0ADFA01F0A1
:10407000A3FA40F6005040F68671C2F20000C2F288
:1040800000012422FEF748FE02B080BD10B582B0C8
:1040900040F68850C2F2000000680168C90626D5C3
:1040A00000210191016840F6885401914068C2F2F4
:1040B0000004019001982046FEF7CAFC40F6283023
:1040C000C2F20000006840F640714068C2F2000190
:1040D000C0F15000087001F027FA00F04FF940F6E7
:1040E000F061C2F2000120465022FEF715FE02B038
:1040F00010BD0000FEE70000002848BF704700F038
:104100001F01012202FA01F14EF200124009CEF223
:10411000000242F8201070474EF60C50CEF200001C
:104120000068C0F3022070474EF6145300F00F02EF
:10413000CEF2000309011A4400F16043B0F1FF3FE1
:10414000C8BF03F564421170704700004EF60C5171
:10415000CEF200010A684FF6FF031A4060F30A220C
:1041600042F0806040F0FD700860704740F6F0500B
:10417000C2F200000021C16070470000B0B52DED13
:10418000048B40F6B075C2F2000529680446481C4D
:1041900044F6C461C2F20001B1F900109FED329AF9
:1041A00000EE101A44F6C661B8EEC00A9FED2F8AE1
:1041B000C2F2000120EE090A098820EE080A0A2846
:1041C000286084ED000A218117D394ED011A9FED38
:1041D000282A30EE410A80EE020A9FED261A84ED6D
:1041E000030AB0EEC00A30EE010A00F06DFB0028B1
:1041F0001CBF0020E0602068606040F62860C2F2CA
:104200000000B0F9000000EE100A2868B8EEC00AFD
:104210000A2840F62A60C2F2000020EE090A00884F
:1042200020EE080A84ED040A208319D394ED051AC0
:104230009FED0F2A30EE410A80EE020A9FED0D1A23
:1042400084ED070AB0EEC00A30EE010A00F03CFB34
:1042500000281CBF0020E061206960610020286008
:10426000BDEC048BB0BD00BF0000B44300000038BB
:10427000CDCCCC3DDAFFE0BD00EE100A9FED071A71
:10428000B8EEC00A20EE010A9FED051A9FED052A3F
:1042900020EE010A30EE020A704700BF000000392C
:1042A0000000B443000034C3B0B58AB040F67824AF
:1042B00001200021C2F200046D460890CDE90610ED
:1042C000CDE90011CDE90211CDE9041120462946BE
:1042D000FCF70AFD2046FDF76BF820460221FCF7AB
:1042E0009DFC40F6A0240E20C2F200040990059027
:1042F00020462946FCF7F8FC2046FDF759F82046F1
:104300000221FCF78BFC0AB0B0BD000080B52DED9A
:10431000048B30EE608AB0EE480AB0EE419A01F0AC
:1043200051FBA8B14042B0EEC80A02EE100A39EEC5
:10433000401AB8EEC22A21EE021AB0EEC12AB4EE3B
:10434000420AF1EE10FAB8BFB0EE481AB0EE418A58
:10435000B0EE480ABDEC048B80BD000040F6F06072
:10436000C2F20000B0F8071040F6EA62D0F8090087
:10437000C2F200021180C2F80200704780B540F618
:10438000F060C2F20000B0F8050040F27C4140F25B
:104390000A22C2F200019042088008BFFFF7DEFF48
:1043A00080BD000010B540F2280040F6B841C2F2CE
:1043B0000000C2F20001B0F90000096840F2804438
:1043C0000864C86340F22600C2F20000B0F90000A1
:1043D000C2F200048863486340F2240040F6704152
:1043E000C2F20000C2F20001B0F9000009680864DE
:1043F000B4F9B805B4F9BA15B4F9BC25B4F9BE35A9
:1044000001F078FAB4F8C005B4F8C2154042494248
:1044100000B209B200F0C0F910BD0000B0B540F61E
:10442000DA5140F28045C2F20001C2F200050A7979
:1044300095F8C40540F65423C2F20003012A18700F
:1044400011D04A79012A0ED00A78012A0BD04A7875
:10445000012A08D08A78012A05D0CA78012A02D018
:10446000497A012903D1002085F8C405B0BD40F682
:104470004471C2F20001897A03293FD002293BD05E
:10448000012939D1032808BFB0BD40F6B844C2F2B3
:10449000000420460C21FEF7F9F920460821FEF71A
:1044A000F5F920460421FEF7F1F920460021002409
:1044B000FEF7ECF940F67040C2F200000C21FEF766
:1044C000E5F940F23900C2F20000047040F25440B5
:1044D000C2F20000046040F25C40C2F200000068DA
:1044E00040F25841C2F20001086040F23800C2F2C6
:1044F0000000FF2101701FE000201BE040F6B844DF
:10450000C2F2000420460C21FEF7C0F92046082123
:10451000FEF7BCF920460421FEF7B8F92046002139
:10452000FEF7B4F940F67040C2F200000C21FEF72D
:10453000ADF9022085F8C40595F8C40540F655216B
:10454000C2F200010870B0BD40F61861C2F200016D
:104550000A890281D1E900124260016070470000BF
:1045600040F6F050C2F200000021016070470000E8
:1045700040F6F050C2F20000002141607047000098
:1045800080B540F28040C2F2000000F5B060FFF755
:10459000F5FD80BDB0B52DED068BB0EE408AB0EED6
:1045A000C00AB4EE410AF1EE10FAB0EE609A24DDD2
:1045B00010EE100AFCF709F841EC1A0B19EE100A7C
:1045C000FCF703F841EC110BB0EE4A0AF0EE6A0A70
:1045D00001F076FEB0EE409AB0EE480AF0EE609A36
:1045E00001F0F0F9FBF7E0FF02460B4651EC190B26
:1045F000FBF7F9FE41EC100B25E018EE100AB0EEC7
:1046000041AAFBF7E2FF04461AEE100A0D46FBF73B
:10461000DCFFB7EE000A30EE490A41EC180B10EE51
:10462000100AFBF7D2FF41EC110BB0EE480AF0EE96
:10463000680A01F045FE53EC102B20462946FBF793
:1046400044FF41EC100B51EC100BFBF7D1FF00EED7
:10465000100ABDEC068BB0BDB0EE401AB7EE000AF2
:10466000B4EE401AF1EE10FAC8BF7047BFEE002A50
:10467000B4EE421AB0EE410AF1EE10FAB8BFB0EE55
:10468000420A70472DE9F0472DED028B824689469C
:104690000A2051469046B0EE408A00F009F900EE3B
:1046A000100AB8EEC00A20EE080A02F039FCBDEE8E
:1046B000C00A10EE101A40F65C774FF0000CC2F200
:1046C00000074FF0000489B14CF6CD42CCF6CC4245
:1046D0008BB2A3FB0205E80800EB8005A1EB4501C6
:1046E000E5B2795501340A2B0146F1D2E1B2BCEBB7
:1046F000510F0DD04FEA510C00230022DD430D4431
:104700007E5D0132F85CFE54D3B29C457855F5D8F5
:10471000A1EB0A057919481C5246FBF799FD2E209A
:1047200078550134012050FA84F248463946FBF7A7
:104730008FFD88F80040BDEC028BBDE8F0870000DB
:1047400080B582B0019040F64450C2F2000001A949
:1047500001224FF6FF73FEF7FFFA019802B080BD09
:1047600040F28041C2F20001D1F880250260D1F808
:10477000901501617047000040F6EA61C2F2000145
:104780008A888280096801607047000040F6CC602A
:10479000C2F200007047000080B540F2644CC2F2E3
:1047A000000C0022CCE9022240F240020823C2F2AF
:1047B0000002CCF81030030A5070080A907040F2E2
:1047C000FF101370CCF8000040F6A02040F6AC7348
:1047D000D170C2F20000C2F200036146FCF732FA67
:1047E00080BD000010B544F6C861C2F20001B1F905
:1047F000001004460846FFF73FFD44F6CA60C2F2C7
:104800000000B0F9000084ED000A01EE100A40F645
:104810002C60C2F20000B0F90000B8EEC11A84EDBD
:10482000011AFFF729FD40F62E60C2F20000B0F930
:10483000000084ED020A01EE100AB8EEC11A84ED00
:10484000031A10BD40F6CC60C2F20000B0F90210AD
:10485000002011F5167FB8BF0120704740F6CC60EC
:10486000C2F20000B0F90010002011F5167FB8BFA9
:104870000120704740F6CC60C2F20000B0F9001091
:104880000020B1F5167FC8BF0120704740F6CC600C
:10489000C2F20000B0F902100020B1F5167FC8BFC7
:1048A000012070470128A8BF012040EAE07070474E
:1048B00010B50129044605D0481EC1B22046FFF7B5
:1048C000F7FF444320B210BD9FED051AB0EEC00AB9
:1048D0000020B4EE410AF1EE10FAB8BF0120704793
:1048E00017B7D13840F6447440F6DA5540F6E4661E
:1048F000C2F20004C2F20005C2F20006FFF746FF52
:10490000014620461822FBF7A3FC2846FFF71CFEB1
:104910003046FFF731FFFFF781FD00F049F9FFF75F
:104920002FFE00F04FF800F0F1FEFFF73BFD0120F5
:1049300000F0B6FAE2E7000040F6F050C2F20000E4
:104940000021816070470000FCF7F6FFFEF7AEFF24
:10495000FEF72EFBFEF7A4FAFEF766FAFEF782FAE0
:10496000FEF746FCFEF76CFCFEF7A6FCFEF70CFD1E
:10497000FEF796FDFEF7D2FDFEF7B4FD00F000FE57
:1049800000F0C8FDFFF790FC40F62840C2F200009E
:10499000FDF718FD40F67040C2F20000FDF712FD71
:1049A00040F6B840C2F20000FDF70CFDFEF79CFA9D
:1049B00000F07EFAFEE70000B0F1840118BFC11CD0
:1049C00008467047B0B52DED0C8B40F6552040F6EB
:1049D0005421C2F20000C2F2000100780978884236
:1049E00000F0D18040F28044C2F2000494F8C40583
:1049F000032860D140F208059FED648A9FED64AA08
:104A00009FED64BA9FED64CA9FED64DAC2F20005BF
:104A1000B3EE0E9A204600212A46B0EE480AF0EE88
:104A2000480AB0EE491AF0EE4A1AB0EE4B2AF0EE00
:104A30004C2AB0EE4D3AFEF7B5FE04F164000021B9
:104A40002A46B0EE4B2AF0EE4C2AB0EE480AF0EEC1
:104A5000480AB0EE491AF0EE4A1AB0EE4D3AFEF7A7
:104A6000A1FE9FED4FBA04F1C80000212A46B0EE26
:104A7000480AF0EE480AB0EE491AF0EE4A1AB0EED3
:104A80004B2AF0EE4B2AB0EE4D3AFEF78BFE04F5C2
:104A9000967000212A46B0EE480AF0EE480AB0EEC1
:104AA000491AF0EE4A1AB0EE4B2AF0EE4B2AB0EE5D
:104AB0004D3AFEF777FE94F8C405022863D140F220
:104AC00008059FED328A9FED32AA9FED36BA9FED21
:104AD00036CA9FED32DAC2F20005B3EE0E9A2046D6
:104AE00000212A46B0EE480AF0EE480AB0EE491A14
:104AF000F0EE4A1AB0EE4B2AF0EE4C2AB0EE4D3AE8
:104B0000FEF750FE40F2140204F16400C2F200020B
:104B10000021F0EE4C2AB0EE480AF0EE480AB0EE62
:104B2000491AF0EE4A1AB0EE4B2AB0EE4D3AFEF7B3
:104B300039FE9FED1ECA04F1C80000212A46B0EEDE
:104B4000480AF0EE480AB0EE491AF0EE4A1AB0EE02
:104B50004C2AF0EE4B2AB0EE4D3AFEF723FE04F558
:104B6000967000212A46B0EE480AF0EE480AB0EEF0
:104B7000491AF0EE4A1AB0EE4C2AF0EE4B2AB0EE8B
:104B80004D3AFEF70FFEBDEC0C8BB0BD9A99993EE5
:104B9000295C4F3F000080460080BB4500000000BC
:104BA0000000FA450000FA4400007A4400409C45A9
:104BB00010B540F28044C2F2000404F5AC60FFF787
:104BC00011FE04F5AE6000F0CBFE10BD80B5A0F282
:104BD0000121052912D840F6502C03EB8100C2F2C6
:104BE000000C4FF0030E0223DFE801F04C03181D08
:104BF000222F40F6522CC2F2000C32E0502834D062
:104C0000512818BF80BD508840F62861C2F20001CB
:104C100040F62A6C0880C2F2000C30E040F6D85C06
:104C2000C2F2000C1DE040F2604CC2F2000C18E031
:104C3000108844F6C86100BA000CC2F2000144F6C4
:104C4000CA6C0880C2F2000C0BE0108840F62C61A0
:104C500000BA000CC2F2000140F62E6C0880C2F2CD
:104C6000000C4FF0030E02230CE0508844F6C461A0
:104C700044F6C66CC2F20001C2F2000C08804FF08C
:104C8000040E0523D05C12F80E1041EA0020ACF8A7
:104C9000000080BDB0B540F6CC52C2F200021278DE
:104CA000072A41D840F6CD53C2F200031B780F2BE0
:104CB00088BFB0BD40F25005C2F2000505EBC2123C
:104CC00047F20855C0F6000502EBC30247F2A8639D
:104CD00005EBC00E47F2D85447F2F865C0F6000362
:104CE000C0F60004C0F6000503EBC00C002304EB83
:104CF000C00405EBC00004E02D78D5540133082B27
:104D000012D00329FAD8DFE801F005090D0300BF2E
:104D1000C518F1E70CEB0305EEE700BF0EEB03054A
:104D2000EAE700BFE518E7E7B0BD00002DE9F04372
:104D300081B002294AD340F6CD58C2F20008044699
:104D400098F800000F2841D8A1F101090027FBF7CE
:104D50007BFA0546002600BF2968E05D095C202932
:104D600004D13038C0B2002122E000BF092801D8A8
:104D700000211DE00A0714D4C90616D4202803D147
:104D800000200321FFF786FFE05D2E2803D10120DC
:104D90000321FFF77FFFE05D3A280BD102200321BA
:104DA00006E06138C0B2012102E04138C0B2022100
:104DB000FFF770FF98F800000136F7B20130B945EF
:104DC00088F8000002DDC0B21028C5D301B0BDE8EC
:104DD000F083000040F6CC50C2F2000001780629B2
:104DE00088BF70470131017040F6CD50C2F200001B
:104DF000002101707047000040F65824C2F2000400
:104E00002046FFF7ADFC00F011F8012000F048F853
:104E1000F6E7000040F6CC50C2F20000002101701D
:104E200040F6CD50C2F200000170704770B5FFF738
:104E3000F1FF40F65826C2F2000640F6707440F6C4
:104E4000857596ED000AC2F20004C2F20005022048
:104E500021462A46FFF716FC0FA00321FFF766FF45
:104E600028780130C1B22046FFF760FFFFF7B2FF9C
:104E700096ED040A022021462A46FFF703FC07A00C
:104E80000321FFF753FF28780130C1B22046FFF716
:104E90004DFFFFF79FFF70BD59200000502000001C
:104EA00080B5002808BF012000F0E4FE002080BD8E
:104EB00080B500F009FF002080BD00002DE9F0431F
:104EC00085B047690C46A7B1856995B1D0E90086E0
:104ED000D0F81090B0F90800FFF76EFDCDE900079B
:104EE000304641464A462346029501F037F8049081
:104EF00013E0D0E90056078AB0F90800FFF75CFD1F
:104F00000DF1100C0090304629463A462346CDF864
:104F100004C000F0EFFF012803D1049805B0BDE8FC
:104F2000F083002005B0BDE8F083000040F6F050AB
:104F3000C2F200000021C1617047000040F6F0504D
:104F4000C2F200000021016170470000F0B581B09D
:104F50000D4644F6BC6140F63066C2F20001C2F272
:104F600000060F6831680446081D00F081FD10B18D
:104F7000601C0FD019E0306844F6D032C06AC2F22B
:104F800000020121136801FA00F023EA000010601A
:104F9000601C0AD14DB13068011D44F69460C2F224
:104FA000000000F0B3FD01B0F0BD3068E4194460CA
:104FB0000AD340F63C60C2F2000000683168043158
:104FC00000F086FD01B0F0BD40F63460C2F2000092
:104FD00000683168043100F07BFD44F66060C2F285
:104FE000000001688C4238BF046001B0F0BD0000D1
:104FF00070B5044600F0A2FD44F6C030C2F20000D5
:10500000016840F6306501310160C2F2000529688F
:1050100044F68866C2F2000641B1306860B928687B
:10502000E16AC06A884298BF2C6005E02C60006885
:10503000012801D100F00CF944F6CC30C2F2000096
:10504000016844F6D03201310160E06AC2F2000228
:105050000121136881401943116040F6406100EB63
:105060008000C2F2000101EB8000211D00F04EFD26
:1050700000F088FD306880B12868E16AC06A884223
:1050800028BF70BD4EF60450CEF200004FF08051A4
:105090000160BFF34F8FBFF36F8F70BDF0B581B06C
:1050A00044F6C435C2F200052868E0B144F6A866AB
:1050B00044F6C037C2F20006C2F2000700F03EFD1F
:1050C000F068C468201D00F0D3FC386801383860EF
:1050D00028680138286000F055FD204600F006F8E9
:1050E00028680028EAD101B0F0BD000010B50446E0
:1050F00090F85100022808BF10BD012803D030B934
:10510000206B00F057FD204600F054FD10BD4FF01D
:10511000500080F31188BFF36F8FBFF34F8F00BF34
:10512000FEE7000040F6B470C2F20000C21D22F09B
:10513000070210F0070CA0EB020318BF104644F65C
:105140008C62C2F200020021C2E900014FF47052E9
:10515000BCF1000F18BF03F570520244083A40F644
:10516000386322F00702C2F200031A60C2E900119C
:10517000111A1A68C0E9002144F65C60C2F200000E
:10518000016044F60040C2F20000016044F6D430F1
:10519000C2F20000012101707047000040F6406437
:1051A0004EF60455C2F20004CEF200054FF08056D0
:1051B000FFF774FF20680228FAD32E60BFF34F8FE9
:1051C000BFF36F8FF4E700002DE9F047DDE90987B1
:1051D0008246386B089C00EB82000438994620F028
:1051E000070679B107F13400002200BF8B5C8354BD
:1051F0008B5C1BB10F2A02F10102F7D3002087F864
:10520000430002E0002087F834000025381D062CFA
:1052100028BF0624FC62C7E9114500F055FC07F1E0
:10522000180000F051FC84F00700B8613046514688
:105230004A463F617F62FD6487F8505000F056F99E
:10524000B8F1000F386018BFC8F80070BDE8F087EB
:10525000B0B540F640650024C2F20005281900F000
:1052600027FC14348C2CF9D144F6D834C2F2000453
:10527000204600F01DFC44F6EC35C2F2000528463D
:1052800000F016FC44F67460C2F2000000F010FC5E
:1052900044F6A860C2F2000000F00AFC44F69460F4
:1052A000C2F2000000F004FC40F63460C2F20000DC
:1052B000046040F63C60C2F200000560B0BD000032
:1052C00080B544F68C62C2F2000200BF114612683B
:1052D0008242FBD3D1F804C001EB0C03834203D11B
:1052E0004068604448600846D0F804C000EB0C03F6
:1052F000934201D013460BE040F63863C2F200033C
:105300001B689A4204D0D2E9003E0EEB0C024260C8
:105310008142036018BF086080BD00000848006833
:10532000006880F308884FF0000080F3148862B6AC
:1053300061B6BFF34F8FBFF36F8F00DF00BF00BFB9
:1053400008ED00E040F63460C2F200000168096830
:1053500021B10068C068C068406801E04FF0FF30CC
:1053600044F66061C2F200010860704781B000201D
:10537000009040F23000C2F2000000684FF050018F
:1053800081F31188BFF36F8FBFF34F8F013001D0CE
:10539000FEE700BF00980028FCD001B07047000075
:1053A0002DE9F04381B0044600F0CEFC40F63866AB
:1053B000C2F200063068002808BFFFF7B3FE44F6CB
:1053C000D438C2F2000898F80000002818BF4FF047
:1053D000004020420DD0002400F0AEFE60071ED039
:1053E0004FF0500080F31188BFF36F8FBFF34F8FE2
:1053F000FEE7C4B114F0070004F108011EBF081A4B
:1054000000F108015FEA41700ED04FF0500080F3C8
:105410001188BFF36F8FBFF34F8F00BFFEE72046A9
:1054200001B0BDE8F083002144F60049C2F2000952
:10543000D9F800004A1E8242CDD244F68C60C2F2F6
:10544000000005682F4657F8042F8A4211D22B68B6
:105450005BB100BF1F4657F8042F28461D468A42FD
:1054600007D22B68002BF5D103E044F68C60C2F222
:10547000000033689D42AED004682B68521A112A8E
:10548000036010D36818430709D04FF0500080F331
:105490001188BFF36F8FBFF34F8F00BFFEE74260ED
:1054A0003960FFF70DFF44F65C603968D9F80020D9
:1054B000C2F200000368511A9942C9F8001038BFBF
:1054C000016098F80000396800284FF0000018BF0C
:1054D00041F00041286044F66860C2F200000268B2
:1054E00008343960511C016076E70000034645F23C
:1054F0006D30C0F600004FF0807C21F0010103E91F
:1055000003106FF0020043F8240CA3F1440043F8A9
:10551000202C704780B540F6F060C2F200005021A8
:1055200000F094FA80BD000040F6F050C2F2000096
:10553000002101627047000040F6CC60C2F200001A
:10554000B0F906009FED041A00EE100AB8EEC00A8A
:1055500080EE010A704700BF0000254440F6CC6091
:10556000C2F20000B0F904009FED041A00EE100A28
:10557000B8EEC00A80EE010A704700BF0000254463
:1055800080B540F68670C2F20000242100F04CFA8B
:1055900080BD000040F6CC60C2F20000B0F9080007
:1055A0009FED041A00EE100AB8EEC00A80EE010A60
:1055B000704700BF0000254440F6F050C2F20000E2
:1055C0000021416270470000F0B540F6CC61C2F2A4
:1055D0000001B1F816C040F6CE504A8940F68673F5
:1055E000C2F20000C2F20003A0F800C08A8118785D
:1055F0005A7893F803E09C7862F30A20D5081A7968
:105600004FEA8E0E64F34A154EEA941E02F001042E
:105610004EEA84275C795208C4F3011664F3CA1277
:105620008E72A609DC88CE7266421C890E826642A2
:10563000D3F80A404D80C1F812401C8AA5F5806558
:105640000880B3F80EE0A0F580634D80A7F5806573
:10565000A0F2F6308F808D80A2F58065A4F580647D
:1056600080B2CA80CE81A1F816E00B80CD801428CC
:105670000C819CBF00204880A7F2F63080B214282D
:105680009CBF00208880A2F2F63080B214289CBF14
:105690000020C88048880A3080B214289CBF0020AF
:1056A0004880B1F9020000EBE03282EAE03080B2DB
:1056B000B0F5257F09D8B1F9040000EBE03282EAA9
:1056C000E03080B2B0F5257F0CD900208881C1E997
:1056D0000000886040F6D0518EEA0C00C2F2000152
:1056E0000880F0BD03EBE33080EAE33080B2B0F530
:1056F000257FEAD8B1F9060000EBE03282EAE0301B
:1057000080B2B0F5257FE5D9DFE70000B0B52DED1B
:10571000048B40F28044C2F2000494F8C4050228CD
:1057200040F0BB80FFF7A6F80546FFF797F8281A68
:10573000FFF7B8F801280BD140F22800C2F20000B0
:105740003221018040F22600C2F20000D221018005
:10575000FFF790F80546FFF781F8281AFFF7A2F83F
:1057600001300BD140F22800C2F20000C8210180B4
:1057700040F22600C2F200003C210180FFF786F8CB
:105780000546FFF75FF8281AFFF78CF8012805D1C6
:1057900040F22400C2F200006E210180FFF776F88B
:1057A0000546FFF74FF8281AFFF77CF8013005D1BE
:1057B00040F22400C2F20000C8210180FFF7EAFE97
:1057C000FEF74AFF9FED488A04F5B46520EE080A0B
:1057D00085ED000AFFF7DEFEFEF73EFF9FED439AE0
:1057E00020EE090A85ED010AFFF7A6FEFEF734FF59
:1057F00020EE090A85ED020AFFF7B0FEFEF72CFF46
:1058000020EE081A04F5AE609FED398A90ED000A8B
:10581000D5ED000A85ED031A2046B0EE481AFDF7D3
:10582000B3FEBDEEC00A04F2745110EE100A91ED01
:10583000000AD5ED010AA4F8B80504F16400B0EE41
:10584000481AFDF7A1FEBDEEC00A04F5AF6110EEE7
:10585000100A91ED000AD5ED020AA4F8BA0504F188
:10586000C800B0EE481AFDF78FFEBDEEC00A04F284
:105870007C5110EE100A91ED000AD5ED030AA4F850
:10588000BC0504F59670B0EE481AFDF77DFEBDEE3E
:10589000C00A10EE100AA4F8BE0594F8C405012849
:1058A0001FD840F6B845C2F2000528460C21FDF786
:1058B0007FF828460821FDF77BF828460421FDF7EC
:1058C00077F8284600210025FDF772F840F6704071
:1058D000C2F200000C21FDF76BF8C4F8B855C4F80B
:1058E000BC55BDEC048BB0BD0000FA440000FAC406
:1058F0000000000010B540F2644CC2F2000C4FF002
:10590000000ECCE902EE40F2400E0824C2F2000E76
:10591000CCF81040040A8EF80100080A8EF8020044
:10592000100A8EF80400180A8EF806004FF4007072
:105930008EF80730CCF8000040F6782040F6AC73C3
:105940008EF803108EF80520C2F20000C2F20003A8
:10595000614672468EF80040FBF774F910BD0000F6
:1059600040F65021C2F20001B1F9001000EE101A09
:1059700040F65221C2F20001B1F90010B8EEC00A9F
:1059800001EE101A40F6D851C2F20001B1F9001030
:10599000B8EEC11A02EE101A40F26041C2F20001E4
:1059A000B1F90010B8EEC22A03EE101AB8EEC33AED
:1059B00080ED000A80ED011A80ED022A80ED033AA5
:1059C00070470000B5EE400AF1EE10FABEBF4FF688
:1059D000FF7000B27047B5EE400AF1EE10FACCBF8E
:1059E0000120002000B2704710B540F25044C2F2CE
:1059F0000004216845F62940CCF28F20484345F643
:105A000028424FEAB000C0F28F22904202D805A08F
:105A100000F02EFC206801302060FAF7A3FFFAF7AF
:105A2000C3FF10BD2564000080B540F6005CC2F2E3
:105A3000000CDCF800208E46D368014643F01000CD
:105A4000D06060467246FDF767F980BD80B540F6CC
:105A5000885CC2F2000CDCF800208E46D368014658
:105A600043F01000D06060467246FDF755F980BDE6
:105A7000D0E9013201699A60D1F804C08268844596
:105A8000536008BF4A60002202610868013808605C
:105A90000868704744F60863C2F20003036044F6E6
:105AA0000440C2F2000008608020106070470000CF
:105AB0004FF0FF31024642F8081F00214260C0E962
:105AC000032201607047000000210161704700005F
:105AD00080B5D1F800C01CF1010207D000F1080325
